{
  "address": "0x3Aa5ebB10DC797CAC828524e59A333d0A371443c",
  "abi": [
    {
      "inputs": [
        {
          "internalType": "address",
          "name": "_encountr",
          "type": "address"
        }
      ],
      "stateMutability": "nonpayable",
      "type": "constructor"
    },
    {
      "anonymous": false,
      "inputs": [
        {
          "indexed": true,
          "internalType": "address",
          "name": "previousOwner",
          "type": "address"
        },
        {
          "indexed": true,
          "internalType": "address",
          "name": "newOwner",
          "type": "address"
        }
      ],
      "name": "OwnershipPulled",
      "type": "event"
    },
    {
      "anonymous": false,
      "inputs": [
        {
          "indexed": true,
          "internalType": "address",
          "name": "previousOwner",
          "type": "address"
        },
        {
          "indexed": true,
          "internalType": "address",
          "name": "newOwner",
          "type": "address"
        }
      ],
      "name": "OwnershipPushed",
      "type": "event"
    },
    {
      "inputs": [],
      "name": "dispense",
      "outputs": [],
      "stateMutability": "nonpayable",
      "type": "function"
    },
    {
      "inputs": [],
      "name": "encountr",
      "outputs": [
        {
          "internalType": "contract IERC20",
          "name": "",
          "type": "address"
        }
      ],
      "stateMutability": "view",
      "type": "function"
    },
    {
      "inputs": [],
      "name": "owner",
      "outputs": [
        {
          "internalType": "address",
          "name": "",
          "type": "address"
        }
      ],
      "stateMutability": "view",
      "type": "function"
    },
    {
      "inputs": [],
      "name": "pullManagement",
      "outputs": [],
      "stateMutability": "nonpayable",
      "type": "function"
    },
    {
      "inputs": [
        {
          "internalType": "address",
          "name": "newOwner_",
          "type": "address"
        }
      ],
      "name": "pushManagement",
      "outputs": [],
      "stateMutability": "nonpayable",
      "type": "function"
    },
    {
      "inputs": [],
      "name": "renounceManagement",
      "outputs": [],
      "stateMutability": "nonpayable",
      "type": "function"
    },
    {
      "inputs": [
        {
          "internalType": "address",
          "name": "_encountr",
          "type": "address"
        }
      ],
      "name": "setEnctr",
      "outputs": [],
      "stateMutability": "nonpayable",
      "type": "function"
    }
  ],
  "transactionHash": "0x7895909038844074de7629a9b0ce2ef5fcdb34b935bb33098769b05f6047e97e",
  "args": [
    "0xCf7Ed3AccA5a467e9e704C703E8D87F634fB0Fc9"
  ],
  "numDeployments": 1,
  "solcInputHash": "96f4f06c266a500d6a2a3fc501741646",
  "bytecode": "0x608060405234801561001057600080fd5b506040516105303803806105308339818101604052602081101561003357600080fd5b5051600080546001600160a01b03191633178082556040516001600160a01b039190911691907fea8258f2d9ddb679928cf34b78cf645b7feda9acc828e4dd82d014eaae270eba908290a3600280546001600160a01b0319166001600160a01b0392909216919091179055610483806100ad6000396000f3fe608060405234801561001057600080fd5b506004361061007d5760003560e01c806346f68ee91161005b57806346f68ee9146100ba5780635a96ac0a146100e0578063859450ca146100e85780638da5cb5b1461010c5761007d565b8063089208d8146100825780630adb1a9a1461008c57806312f8d52c14610094575b600080fd5b61008a610114565b005b61008a6101c9565b61008a600480360360208110156100aa57600080fd5b50356001600160a01b031661024e565b61008a600480360360208110156100d057600080fd5b50356001600160a01b03166102cf565b61008a610389565b6100f0610436565b604080516001600160a01b039092168252519081900360200190f35b6100f0610445565b6000546001600160a01b03163314610173576040805162461bcd60e51b815260206004820181905260248201527f4f776e61626c653a2063616c6c6572206973206e6f7420746865206f776e6572604482015290519081900360640190fd5b600080546040516001600160a01b03909116907faa151555690c956fc3ea32f106bb9f119b5237a061eaa8557cff3e51e3792c8d908390a3600080546001600160a01b0319908116909155600180549091169055565b6002546040805163a9059cbb60e01b8152336004820152633b9aca00602482015290516001600160a01b039092169163a9059cbb916044808201926020929091908290030181600087803b15801561022057600080fd5b505af1158015610234573d6000803e3d6000fd5b505050506040513d602081101561024a57600080fd5b5050565b6000546001600160a01b031633146102ad576040805162461bcd60e51b815260206004820181905260248201527f4f776e61626c653a2063616c6c6572206973206e6f7420746865206f776e6572604482015290519081900360640190fd5b600280546001600160a01b0319166001600160a01b0392909216919091179055565b6000546001600160a01b0316331461032e576040805162461bcd60e51b815260206004820181905260248201527f4f776e61626c653a2063616c6c6572206973206e6f7420746865206f776e6572604482015290519081900360640190fd5b600080546040516001600160a01b03808516939216917fea8258f2d9ddb679928cf34b78cf645b7feda9acc828e4dd82d014eaae270eba91a3600180546001600160a01b0319166001600160a01b0392909216919091179055565b6001546001600160a01b031633146103d25760405162461bcd60e51b81526004018080602001828103825260228152602001806104556022913960400191505060405180910390fd5b600154600080546040516001600160a01b0393841693909116917faa151555690c956fc3ea32f106bb9f119b5237a061eaa8557cff3e51e3792c8d91a360018054600080546001600160a01b03199081166001600160a01b03841617909155169055565b6002546001600160a01b031681565b6000546001600160a01b03169056fe4f776e61626c653a206d757374206265206e6577206f776e657220746f2070756c6ca164736f6c6343000705000a",
  "devdoc": {
    "kind": "dev",
    "methods": {},
    "version": 1
  },
  "userdoc": {
    "kind": "user",
    "methods": {},
    "version": 1
  },
  "storageLayout": {
    "storage": [
      {
        "astId": 8457,
        "contract": "contracts/testnet/EnctrFaucet.sol:EnctrFaucet",
        "label": "_owner",
        "offset": 0,
        "slot": "0",
        "type": "t_address"
      },
      {
        "astId": 8459,
        "contract": "contracts/testnet/EnctrFaucet.sol:EnctrFaucet",
        "label": "_newOwner",
        "offset": 0,
        "slot": "1",
        "type": "t_address"
      },
      {
        "astId": 7668,
        "contract": "contracts/testnet/EnctrFaucet.sol:EnctrFaucet",
        "label": "encountr",
        "offset": 0,
        "slot": "2",
        "type": "t_contract(IERC20)4626"
      }
    ],
    "types": {
      "t_address": {
        "encoding": "inplace",
        "label": "address",
        "numberOfBytes": "20"
      },
      "t_contract(IERC20)4626": {
        "encoding": "inplace",
        "label": "contract IERC20",
        "numberOfBytes": "20"
      }
    }
  }
}