{
  "address": "0xB7f8BC63BbcaD18155201308C8f3540b07f84F5e",
  "abi": [
    {
      "inputs": [
        {
          "internalType": "address",
          "name": "_authority",
          "type": "address"
        }
      ],
      "stateMutability": "nonpayable",
      "type": "constructor"
    },
    {
      "anonymous": false,
      "inputs": [
        {
          "indexed": true,
          "internalType": "address",
          "name": "owner",
          "type": "address"
        },
        {
          "indexed": true,
          "internalType": "address",
          "name": "spender",
          "type": "address"
        },
        {
          "indexed": false,
          "internalType": "uint256",
          "name": "value",
          "type": "uint256"
        }
      ],
      "name": "Approval",
      "type": "event"
    },
    {
      "anonymous": false,
      "inputs": [
        {
          "indexed": true,
          "internalType": "contract IEncountrAuthority",
          "name": "authority",
          "type": "address"
        }
      ],
      "name": "AuthorityUpdated",
      "type": "event"
    },
    {
      "anonymous": false,
      "inputs": [
        {
          "indexed": true,
          "internalType": "address",
          "name": "from",
          "type": "address"
        },
        {
          "indexed": true,
          "internalType": "address",
          "name": "to",
          "type": "address"
        },
        {
          "indexed": false,
          "internalType": "uint256",
          "name": "value",
          "type": "uint256"
        }
      ],
      "name": "Transfer",
      "type": "event"
    },
    {
      "inputs": [],
      "name": "DOMAIN_SEPARATOR",
      "outputs": [
        {
          "internalType": "bytes32",
          "name": "",
          "type": "bytes32"
        }
      ],
      "stateMutability": "view",
      "type": "function"
    },
    {
      "inputs": [
        {
          "internalType": "address",
          "name": "approvedSeller_",
          "type": "address"
        }
      ],
      "name": "addApprovedSeller",
      "outputs": [
        {
          "internalType": "bool",
          "name": "",
          "type": "bool"
        }
      ],
      "stateMutability": "nonpayable",
      "type": "function"
    },
    {
      "inputs": [
        {
          "internalType": "address[]",
          "name": "approvedSellers_",
          "type": "address[]"
        }
      ],
      "name": "addApprovedSellers",
      "outputs": [
        {
          "internalType": "bool",
          "name": "",
          "type": "bool"
        }
      ],
      "stateMutability": "nonpayable",
      "type": "function"
    },
    {
      "inputs": [],
      "name": "allowMinting",
      "outputs": [
        {
          "internalType": "bool",
          "name": "",
          "type": "bool"
        }
      ],
      "stateMutability": "view",
      "type": "function"
    },
    {
      "inputs": [],
      "name": "allowOpenTrading",
      "outputs": [
        {
          "internalType": "bool",
          "name": "",
          "type": "bool"
        }
      ],
      "stateMutability": "nonpayable",
      "type": "function"
    },
    {
      "inputs": [
        {
          "internalType": "address",
          "name": "owner",
          "type": "address"
        },
        {
          "internalType": "address",
          "name": "spender",
          "type": "address"
        }
      ],
      "name": "allowance",
      "outputs": [
        {
          "internalType": "uint256",
          "name": "",
          "type": "uint256"
        }
      ],
      "stateMutability": "view",
      "type": "function"
    },
    {
      "inputs": [
        {
          "internalType": "address",
          "name": "spender",
          "type": "address"
        },
        {
          "internalType": "uint256",
          "name": "amount",
          "type": "uint256"
        }
      ],
      "name": "approve",
      "outputs": [
        {
          "internalType": "bool",
          "name": "",
          "type": "bool"
        }
      ],
      "stateMutability": "nonpayable",
      "type": "function"
    },
    {
      "inputs": [],
      "name": "authority",
      "outputs": [
        {
          "internalType": "contract IEncountrAuthority",
          "name": "",
          "type": "address"
        }
      ],
      "stateMutability": "view",
      "type": "function"
    },
    {
      "inputs": [
        {
          "internalType": "address",
          "name": "account",
          "type": "address"
        }
      ],
      "name": "balanceOf",
      "outputs": [
        {
          "internalType": "uint256",
          "name": "",
          "type": "uint256"
        }
      ],
      "stateMutability": "view",
      "type": "function"
    },
    {
      "inputs": [],
      "name": "decimals",
      "outputs": [
        {
          "internalType": "uint8",
          "name": "",
          "type": "uint8"
        }
      ],
      "stateMutability": "view",
      "type": "function"
    },
    {
      "inputs": [
        {
          "internalType": "address",
          "name": "spender",
          "type": "address"
        },
        {
          "internalType": "uint256",
          "name": "subtractedValue",
          "type": "uint256"
        }
      ],
      "name": "decreaseAllowance",
      "outputs": [
        {
          "internalType": "bool",
          "name": "",
          "type": "bool"
        }
      ],
      "stateMutability": "nonpayable",
      "type": "function"
    },
    {
      "inputs": [],
      "name": "disableMinting",
      "outputs": [
        {
          "internalType": "bool",
          "name": "",
          "type": "bool"
        }
      ],
      "stateMutability": "nonpayable",
      "type": "function"
    },
    {
      "inputs": [
        {
          "internalType": "address",
          "name": "spender",
          "type": "address"
        },
        {
          "internalType": "uint256",
          "name": "addedValue",
          "type": "uint256"
        }
      ],
      "name": "increaseAllowance",
      "outputs": [
        {
          "internalType": "bool",
          "name": "",
          "type": "bool"
        }
      ],
      "stateMutability": "nonpayable",
      "type": "function"
    },
    {
      "inputs": [
        {
          "internalType": "address",
          "name": "",
          "type": "address"
        }
      ],
      "name": "isApprovedSeller",
      "outputs": [
        {
          "internalType": "bool",
          "name": "",
          "type": "bool"
        }
      ],
      "stateMutability": "view",
      "type": "function"
    },
    {
      "inputs": [
        {
          "internalType": "address",
          "name": "recipient_",
          "type": "address"
        },
        {
          "internalType": "uint256",
          "name": "amount_",
          "type": "uint256"
        }
      ],
      "name": "mint",
      "outputs": [],
      "stateMutability": "nonpayable",
      "type": "function"
    },
    {
      "inputs": [],
      "name": "name",
      "outputs": [
        {
          "internalType": "string",
          "name": "",
          "type": "string"
        }
      ],
      "stateMutability": "view",
      "type": "function"
    },
    {
      "inputs": [
        {
          "internalType": "address",
          "name": "owner",
          "type": "address"
        }
      ],
      "name": "nonces",
      "outputs": [
        {
          "internalType": "uint256",
          "name": "",
          "type": "uint256"
        }
      ],
      "stateMutability": "view",
      "type": "function"
    },
    {
      "inputs": [
        {
          "internalType": "address",
          "name": "owner",
          "type": "address"
        },
        {
          "internalType": "address",
          "name": "spender",
          "type": "address"
        },
        {
          "internalType": "uint256",
          "name": "value",
          "type": "uint256"
        },
        {
          "internalType": "uint256",
          "name": "deadline",
          "type": "uint256"
        },
        {
          "internalType": "uint8",
          "name": "v",
          "type": "uint8"
        },
        {
          "internalType": "bytes32",
          "name": "r",
          "type": "bytes32"
        },
        {
          "internalType": "bytes32",
          "name": "s",
          "type": "bytes32"
        }
      ],
      "name": "permit",
      "outputs": [],
      "stateMutability": "nonpayable",
      "type": "function"
    },
    {
      "inputs": [
        {
          "internalType": "address",
          "name": "disapprovedSeller_",
          "type": "address"
        }
      ],
      "name": "removeApprovedSeller",
      "outputs": [
        {
          "internalType": "bool",
          "name": "",
          "type": "bool"
        }
      ],
      "stateMutability": "nonpayable",
      "type": "function"
    },
    {
      "inputs": [
        {
          "internalType": "address[]",
          "name": "disapprovedSellers_",
          "type": "address[]"
        }
      ],
      "name": "removeApprovedSellers",
      "outputs": [
        {
          "internalType": "bool",
          "name": "",
          "type": "bool"
        }
      ],
      "stateMutability": "nonpayable",
      "type": "function"
    },
    {
      "inputs": [],
      "name": "requireSellerApproval",
      "outputs": [
        {
          "internalType": "bool",
          "name": "",
          "type": "bool"
        }
      ],
      "stateMutability": "view",
      "type": "function"
    },
    {
      "inputs": [
        {
          "internalType": "contract IEncountrAuthority",
          "name": "_newAuthority",
          "type": "address"
        }
      ],
      "name": "setAuthority",
      "outputs": [],
      "stateMutability": "nonpayable",
      "type": "function"
    },
    {
      "inputs": [],
      "name": "symbol",
      "outputs": [
        {
          "internalType": "string",
          "name": "",
          "type": "string"
        }
      ],
      "stateMutability": "view",
      "type": "function"
    },
    {
      "inputs": [],
      "name": "totalSupply",
      "outputs": [
        {
          "internalType": "uint256",
          "name": "",
          "type": "uint256"
        }
      ],
      "stateMutability": "view",
      "type": "function"
    },
    {
      "inputs": [
        {
          "internalType": "address",
          "name": "recipient",
          "type": "address"
        },
        {
          "internalType": "uint256",
          "name": "amount",
          "type": "uint256"
        }
      ],
      "name": "transfer",
      "outputs": [
        {
          "internalType": "bool",
          "name": "",
          "type": "bool"
        }
      ],
      "stateMutability": "nonpayable",
      "type": "function"
    },
    {
      "inputs": [
        {
          "internalType": "address",
          "name": "sender",
          "type": "address"
        },
        {
          "internalType": "address",
          "name": "recipient",
          "type": "address"
        },
        {
          "internalType": "uint256",
          "name": "amount",
          "type": "uint256"
        }
      ],
      "name": "transferFrom",
      "outputs": [
        {
          "internalType": "bool",
          "name": "",
          "type": "bool"
        }
      ],
      "stateMutability": "nonpayable",
      "type": "function"
    }
  ],
  "transactionHash": "0x2e0e0a2a8a581d66a7cc1f828b4a83186e64839df917d1bc56dda722c2e3d1ba",
  "args": [
    "0x9fE46736679d2D9a65F0992F2272dE9f3c7fa6e0"
  ],
  "numDeployments": 1,
  "solcInputHash": "26b2ccae29ba99ed01b125c5709b8be1",
  "bytecode": "0x7f6e71edae12b1b97f4d1f60370fef10105fa2faae0126114a169c64845d6126c9610140526101a0604052600c6101608190526b15539055551213d49256915160a21b610180908152620000579160069190620004c1565b503480156200006557600080fd5b506040516200241738038062002417833981810160405260208110156200008b57600080fd5b50516040805180820182526009808252683822b731b7bab73a3960b91b60208381018290528451808601865260018152603160f81b8183015285518087018752848152808301938452865180880190975260068752653822a721aa2960d11b9287019290925281518796869592949092916200010a91600391620004c1565b50815162000120906004906020850190620004c1565b5060f81b7fff00000000000000000000000000000000000000000000000000000000000000166080525050815160208084019190912082519183019190912060e08290526101008190524660c081905291907f8b73c3c69bb8fe3d512ecc4cf759cc79239f7b179b0ffacaa9a75d522b39400f620001a081848462000259565b60a052610120525050600780546001600160a01b0319166001600160a01b0387169081179091556040519094507f2f658b440c35314f52658ea8a740e05b284cdc84dc9ae01e891f21b8933e7cad9350600092509050a2506007805460ff60a81b1960ff60a01b19909116600160a01b1716600160a81b1790556200022660006200029e565b62000231306200029e565b6200023c336200029e565b670de0b6b3a7640000620002513382620002c2565b50506200056d565b604080516020808201959095528082019390935260608301919091524660808301523060a0808401919091528151808403909101815260c09092019052805191012090565b6001600160a01b03166000908152600860205260409020805460ff19166001179055565b6001600160a01b0382166200031e576040805162461bcd60e51b815260206004820152601f60248201527f45524332303a206d696e7420746f20746865207a65726f206164647265737300604482015290519081900360640190fd5b6200032c60008383620003d1565b62000348816002546200045f60201b620013d71790919060201c565b6002556001600160a01b038216600090815260208181526040909120546200037b918390620013d76200045f821b17901c565b6001600160a01b0383166000818152602081815260408083209490945583518581529351929391927fddf252ad1be2c89b69c2b068fc378daa952ba7f163c4a11628f55a4df523b3ef9281900390910190a35050565b600754600160a01b900460ff1615806200040857506001600160a01b03831660009081526008602052604090205460ff1615156001145b6200045a576040805162461bcd60e51b815260206004820181905260248201527f6e6f7420617070726f76656420746f207472616e736665722070454e4354522e604482015290519081900360640190fd5b505050565b600082820183811015620004ba576040805162461bcd60e51b815260206004820152601b60248201527f536166654d6174683a206164646974696f6e206f766572666c6f770000000000604482015290519081900360640190fd5b9392505050565b828054600181600116156101000203166002900490600052602060002090601f016020900481019282620004f9576000855562000544565b82601f106200051457805160ff191683800117855562000544565b8280016001018555821562000544579182015b828111156200054457825182559160200191906001019062000527565b506200055292915062000556565b5090565b5b8082111562000552576000815560010162000557565b60805160f81c60a05160c05160e051610100516101205161014051611e53620005c46000398061116e5250806117905250806117d25250806117b152508061173c5250806117645250806108af5250611e536000f3fe608060405234801561001057600080fd5b50600436106101ae5760003560e01c80637a9e5e4b116100ee578063a457c2d711610097578063bf7e214f11610071578063bf7e214f1461057c578063d505accf146105a0578063dd62ed3e146105f1578063ea46d1961461061f576101ae565b8063a457c2d71461051c578063a9059cbb14610548578063b93ea6a114610574576101ae565b806395d89b41116100c857806395d89b411461047e5780639a9429b614610486578063a2efb975146104f6576101ae565b80637a9e5e4b1461042a5780637e5cd5c1146104505780637ecebe0014610458576101ae565b806323b872dd1161015b5780633950935111610135578063395093511461033a57806340c10f19146103665780635b0ed0ef1461039457806370a0823114610404576101ae565b806323b872dd146102de578063313ce567146103145780633644e51514610332576101ae565b80630c4b56bf1161018c5780630c4b56bf146102965780631602a124146102bc57806318160ddd146102c4576101ae565b806306fdde03146101b35780630775b33d14610230578063095ea7b31461026a575b600080fd5b6101bb610627565b6040805160208082528351818301528351919283929083019185019080838360005b838110156101f55781810151838201526020016101dd565b50505050905090810190601f1680156102225780820380516001836020036101000a031916815260200191505b509250505060405180910390f35b6102566004803603602081101561024657600080fd5b50356001600160a01b03166106be565b604080519115158252519081900360200190f35b6102566004803603604081101561028057600080fd5b506001600160a01b038135169060200135610803565b610256600480360360208110156102ac57600080fd5b50356001600160a01b0316610819565b61025661082e565b6102cc61083e565b60408051918252519081900360200190f35b610256600480360360608110156102f457600080fd5b506001600160a01b03813581169160208101359091169060400135610844565b61031c6108ad565b6040805160ff9092168252519081900360200190f35b6102cc6108d1565b6102566004803603604081101561035057600080fd5b506001600160a01b0381351690602001356108e0565b6103926004803603604081101561037c57600080fd5b506001600160a01b038135169060200135610916565b005b610256600480360360208110156103aa57600080fd5b8101906020810181356401000000008111156103c557600080fd5b8201836020820111156103d757600080fd5b803590602001918460208302840111640100000000831117156103f957600080fd5b509092509050610a6e565b6102cc6004803603602081101561041a57600080fd5b50356001600160a01b0316610b88565b6103926004803603602081101561044057600080fd5b50356001600160a01b0316610ba3565b610256610cf1565b6102cc6004803603602081101561046e57600080fd5b50356001600160a01b0316610e0c565b6101bb610e33565b6102566004803603602081101561049c57600080fd5b8101906020810181356401000000008111156104b757600080fd5b8201836020820111156104c957600080fd5b803590602001918460208302840111640100000000831117156104eb57600080fd5b509092509050610e94565b6102566004803603602081101561050c57600080fd5b50356001600160a01b0316610fae565b6102566004803603604081101561053257600080fd5b506001600160a01b03813516906020013561109a565b6102566004803603604081101561055e57600080fd5b506001600160a01b0381351690602001356110e9565b6102566110f6565b610584611106565b604080516001600160a01b039092168252519081900360200190f35b610392600480360360e08110156105b657600080fd5b506001600160a01b03813581169160208101359091169060408101359060608101359060ff6080820135169060a08101359060c00135611115565b6102cc6004803603604081101561060757600080fd5b506001600160a01b0381358116916020013516611291565b6102566112bc565b60038054604080516020601f60026000196101006001881615020190951694909404938401819004810282018101909252828152606093909290918301828280156106b35780601f10610688576101008083540402835291602001916106b3565b820191906000526020600020905b81548152906001019060200180831161069657829003601f168201915b505050505090505b90565b6007546040805163030d028960e21b815290516000926001600160a01b031691630c340a24916004808301926020929190829003018186803b15801561070357600080fd5b505afa158015610717573d6000803e3d6000fd5b505050506040513d602081101561072d57600080fd5b50516006906001600160a01b031633146107da5760405162461bcd60e51b81526020600482019081528254600260001961010060018416150201909116046024830181905290918291604490910190849080156107cb5780601f106107a0576101008083540402835291602001916107cb565b820191906000526020600020905b8154815290600101906020018083116107ae57829003601f168201915b50509250505060405180910390fd5b506107e482611438565b506001600160a01b031660009081526008602052604090205460ff1690565b6000610810338484611459565b50600192915050565b60086020526000908152604090205460ff1681565b600754600160a81b900460ff1681565b60025490565b6000610851848484611545565b6108a3843361089e85604051806060016040528060288152602001611db1602891396001600160a01b038a16600090815260016020908152604080832033845290915290205491906116a0565b611459565b5060019392505050565b7f000000000000000000000000000000000000000000000000000000000000000090565b60006108db611737565b905090565b3360008181526001602090815260408083206001600160a01b0387168452909152812054909161081091859061089e90866113d7565b600760009054906101000a90046001600160a01b03166001600160a01b0316630c340a246040518163ffffffff1660e01b815260040160206040518083038186803b15801561096457600080fd5b505afa158015610978573d6000803e3d6000fd5b505050506040513d602081101561098e57600080fd5b50516006906001600160a01b03163314610a015760405162461bcd60e51b81526020600482019081528254600260001961010060018416150201909116046024830181905290918291604490910190849080156107cb5780601f106107a0576101008083540402835291602001916107cb565b50600754600160a81b900460ff16610a60576040805162461bcd60e51b815260206004820152601a60248201527f4d696e74696e6720686173206265656e2064697361626c65642e000000000000604482015290519081900360640190fd5b610a6a82826117fe565b5050565b6007546040805163030d028960e21b815290516000926001600160a01b031691630c340a24916004808301926020929190829003018186803b158015610ab357600080fd5b505afa158015610ac7573d6000803e3d6000fd5b505050506040513d6020811015610add57600080fd5b50516006906001600160a01b03163314610b505760405162461bcd60e51b81526020600482019081528254600260001961010060018416150201909116046024830181905290918291604490910190849080156107cb5780601f106107a0576101008083540402835291602001916107cb565b5060005b808311156108a357610b80848483818110610b6b57fe5b905060200201356001600160a01b03166118ee565b600101610b54565b6001600160a01b031660009081526020819052604090205490565b600760009054906101000a90046001600160a01b03166001600160a01b0316630c340a246040518163ffffffff1660e01b815260040160206040518083038186803b158015610bf157600080fd5b505afa158015610c05573d6000803e3d6000fd5b505050506040513d6020811015610c1b57600080fd5b50516006906001600160a01b03163314610c8e5760405162461bcd60e51b81526020600482019081528254600260001961010060018416150201909116046024830181905290918291604490910190849080156107cb5780601f106107a0576101008083540402835291602001916107cb565b50600780547fffffffffffffffffffffffff0000000000000000000000000000000000000000166001600160a01b0383169081179091556040517f2f658b440c35314f52658ea8a740e05b284cdc84dc9ae01e891f21b8933e7cad90600090a250565b6007546040805163030d028960e21b815290516000926001600160a01b031691630c340a24916004808301926020929190829003018186803b158015610d3657600080fd5b505afa158015610d4a573d6000803e3d6000fd5b505050506040513d6020811015610d6057600080fd5b50516006906001600160a01b03163314610dd35760405162461bcd60e51b81526020600482019081528254600260001961010060018416150201909116046024830181905290918291604490910190849080156107cb5780601f106107a0576101008083540402835291602001916107cb565b5050600780547fffffffffffffffffffff00ffffffffffffffffffffffffffffffffffffffffff1690819055600160a81b900460ff1690565b6001600160a01b0381166000908152600560205260408120610e2d90611912565b92915050565b60048054604080516020601f60026000196101006001881615020190951694909404938401819004810282018101909252828152606093909290918301828280156106b35780601f10610688576101008083540402835291602001916106b3565b6007546040805163030d028960e21b815290516000926001600160a01b031691630c340a24916004808301926020929190829003018186803b158015610ed957600080fd5b505afa158015610eed573d6000803e3d6000fd5b505050506040513d6020811015610f0357600080fd5b50516006906001600160a01b03163314610f765760405162461bcd60e51b81526020600482019081528254600260001961010060018416150201909116046024830181905290918291604490910190849080156107cb5780601f106107a0576101008083540402835291602001916107cb565b5060005b808311156108a357610fa6848483818110610f9157fe5b905060200201356001600160a01b0316611438565b600101610f7a565b6007546040805163030d028960e21b815290516000926001600160a01b031691630c340a24916004808301926020929190829003018186803b158015610ff357600080fd5b505afa158015611007573d6000803e3d6000fd5b505050506040513d602081101561101d57600080fd5b50516006906001600160a01b031633146110905760405162461bcd60e51b81526020600482019081528254600260001961010060018416150201909116046024830181905290918291604490910190849080156107cb5780601f106107a0576101008083540402835291602001916107cb565b506107e4826118ee565b6000610810338461089e85604051806060016040528060258152602001611e22602591393360009081526001602090815260408083206001600160a01b038d16845290915290205491906116a0565b6000610810338484611545565b600754600160a01b900460ff1681565b6007546001600160a01b031681565b8342111561116a576040805162461bcd60e51b815260206004820152601d60248201527f45524332305065726d69743a206578706972656420646561646c696e65000000604482015290519081900360640190fd5b60007f00000000000000000000000000000000000000000000000000000000000000008888886111998c611916565b8960405160200180878152602001866001600160a01b03168152602001856001600160a01b031681526020018481526020018381526020018281526020019650505050505050604051602081830303815290604052805190602001209050600061120282611948565b905060006112128287878761195b565b9050896001600160a01b0316816001600160a01b03161461127a576040805162461bcd60e51b815260206004820152601e60248201527f45524332305065726d69743a20696e76616c6964207369676e61747572650000604482015290519081900360640190fd5b6112858a8a8a611459565b50505050505050505050565b6001600160a01b03918216600090815260016020908152604080832093909416825291909152205490565b6007546040805163030d028960e21b815290516000926001600160a01b031691630c340a24916004808301926020929190829003018186803b15801561130157600080fd5b505afa158015611315573d6000803e3d6000fd5b505050506040513d602081101561132b57600080fd5b50516006906001600160a01b0316331461139e5760405162461bcd60e51b81526020600482019081528254600260001961010060018416150201909116046024830181905290918291604490910190849080156107cb5780601f106107a0576101008083540402835291602001916107cb565b5050600780547fffffffffffffffffffffff00ffffffffffffffffffffffffffffffffffffffff1690819055600160a01b900460ff1690565b600082820183811015611431576040805162461bcd60e51b815260206004820152601b60248201527f536166654d6174683a206164646974696f6e206f766572666c6f770000000000604482015290519081900360640190fd5b9392505050565b6001600160a01b03166000908152600860205260409020805460ff19169055565b6001600160a01b03831661149e5760405162461bcd60e51b8152600401808060200182810382526024815260200180611dfe6024913960400191505060405180910390fd5b6001600160a01b0382166114e35760405162461bcd60e51b8152600401808060200182810382526022815260200180611d256022913960400191505060405180910390fd5b6001600160a01b03808416600081815260016020908152604080832094871680845294825291829020859055815185815291517f8c5be1e5ebec7d5bd14f71427d1e84f3dd0314c0f7b2291e5b200ac8c7c3b9259281900390910190a3505050565b6001600160a01b03831661158a5760405162461bcd60e51b8152600401808060200182810382526025815260200180611dd96025913960400191505060405180910390fd5b6001600160a01b0382166115cf5760405162461bcd60e51b8152600401808060200182810382526023815260200180611d026023913960400191505060405180910390fd5b6115da838383611983565b61161781604051806060016040528060268152602001611d47602691396001600160a01b03861660009081526020819052604090205491906116a0565b6001600160a01b03808516600090815260208190526040808220939093559084168152205461164690826113d7565b6001600160a01b038084166000818152602081815260409182902094909455805185815290519193928716927fddf252ad1be2c89b69c2b068fc378daa952ba7f163c4a11628f55a4df523b3ef92918290030190a3505050565b6000818484111561172f5760405162461bcd60e51b81526004018080602001828103825283818151815260200191508051906020019080838360005b838110156116f45781810151838201526020016116dc565b50505050905090810190601f1680156117215780820380516001836020036101000a031916815260200191505b509250505060405180910390fd5b505050900390565b6000467f000000000000000000000000000000000000000000000000000000000000000081141561178b577f00000000000000000000000000000000000000000000000000000000000000009150506106bb565b6117f67f00000000000000000000000000000000000000000000000000000000000000007f00000000000000000000000000000000000000000000000000000000000000007f0000000000000000000000000000000000000000000000000000000000000000611a0f565b9150506106bb565b6001600160a01b038216611859576040805162461bcd60e51b815260206004820152601f60248201527f45524332303a206d696e7420746f20746865207a65726f206164647265737300604482015290519081900360640190fd5b61186560008383611983565b60025461187290826113d7565b6002556001600160a01b03821660009081526020819052604090205461189890826113d7565b6001600160a01b0383166000818152602081815260408083209490945583518581529351929391927fddf252ad1be2c89b69c2b068fc378daa952ba7f163c4a11628f55a4df523b3ef9281900390910190a35050565b6001600160a01b03166000908152600860205260409020805460ff19166001179055565b5490565b6001600160a01b038116600090815260056020526040812061193781611912565b915061194281611a54565b50919050565b6000610e2d611955611737565b83611a5d565b600080600061196c87878787611a98565b9150915061197981611b8d565b5095945050505050565b600754600160a01b900460ff1615806119b957506001600160a01b03831660009081526008602052604090205460ff1615156001145b611a0a576040805162461bcd60e51b815260206004820181905260248201527f6e6f7420617070726f76656420746f207472616e736665722070454e4354522e604482015290519081900360640190fd5b505050565b604080516020808201959095528082019390935260608301919091524660808301523060a0808401919091528151808403909101815260c09092019052805191012090565b80546001019055565b6040805161190160f01b6020808301919091526022820194909452604280820193909352815180820390930183526062019052805191012090565b6000807f7fffffffffffffffffffffffffffffff5d576e7357a4501ddfe92f46681b20a0831115611acf5750600090506003611b84565b8460ff16601b14158015611ae757508460ff16601c14155b15611af85750600090506004611b84565b600060018787878760405160008152602001604052604051808581526020018460ff1681526020018381526020018281526020019450505050506020604051602081039080840390855afa158015611b54573d6000803e3d6000fd5b5050604051601f1901519150506001600160a01b038116611b7d57600060019250925050611b84565b9150600090505b94509492505050565b6000816004811115611b9b57fe5b1415611ba657611cfe565b6001816004811115611bb457fe5b1415611c07576040805162461bcd60e51b815260206004820152601860248201527f45434453413a20696e76616c6964207369676e61747572650000000000000000604482015290519081900360640190fd5b6002816004811115611c1557fe5b1415611c68576040805162461bcd60e51b815260206004820152601f60248201527f45434453413a20696e76616c6964207369676e6174757265206c656e67746800604482015290519081900360640190fd5b6003816004811115611c7657fe5b1415611cb35760405162461bcd60e51b8152600401808060200182810382526022815260200180611d6d6022913960400191505060405180910390fd5b6004816004811115611cc157fe5b1415611cfe5760405162461bcd60e51b8152600401808060200182810382526022815260200180611d8f6022913960400191505060405180910390fd5b5056fe45524332303a207472616e7366657220746f20746865207a65726f206164647265737345524332303a20617070726f766520746f20746865207a65726f206164647265737345524332303a207472616e7366657220616d6f756e7420657863656564732062616c616e636545434453413a20696e76616c6964207369676e6174757265202773272076616c756545434453413a20696e76616c6964207369676e6174757265202776272076616c756545524332303a207472616e7366657220616d6f756e74206578636565647320616c6c6f77616e636545524332303a207472616e736665722066726f6d20746865207a65726f206164647265737345524332303a20617070726f76652066726f6d20746865207a65726f206164647265737345524332303a2064656372656173656420616c6c6f77616e63652062656c6f77207a65726fa164736f6c6343000705000a",
  "devdoc": {
    "kind": "dev",
    "methods": {
      "DOMAIN_SEPARATOR()": {
        "details": "See {IERC20Permit-DOMAIN_SEPARATOR}."
      },
      "nonces(address)": {
        "details": "See {IERC20Permit-nonces}."
      },
      "permit(address,address,uint256,uint256,uint8,bytes32,bytes32)": {
        "details": "See {IERC20Permit-permit}."
      }
    },
    "version": 1
  },
  "userdoc": {
    "kind": "user",
    "methods": {},
    "version": 1
  },
  "storageLayout": {
    "storage": [
      {
        "astId": 9083,
        "contract": "contracts/sales/pEncountr.sol:pEncountr",
        "label": "_balances",
        "offset": 0,
        "slot": "0",
        "type": "t_mapping(t_address,t_uint256)"
      },
      {
        "astId": 9089,
        "contract": "contracts/sales/pEncountr.sol:pEncountr",
        "label": "_allowances",
        "offset": 0,
        "slot": "1",
        "type": "t_mapping(t_address,t_mapping(t_address,t_uint256))"
      },
      {
        "astId": 9091,
        "contract": "contracts/sales/pEncountr.sol:pEncountr",
        "label": "_totalSupply",
        "offset": 0,
        "slot": "2",
        "type": "t_uint256"
      },
      {
        "astId": 9093,
        "contract": "contracts/sales/pEncountr.sol:pEncountr",
        "label": "_name",
        "offset": 0,
        "slot": "3",
        "type": "t_string_storage"
      },
      {
        "astId": 9095,
        "contract": "contracts/sales/pEncountr.sol:pEncountr",
        "label": "_symbol",
        "offset": 0,
        "slot": "4",
        "type": "t_string_storage"
      },
      {
        "astId": 9564,
        "contract": "contracts/sales/pEncountr.sol:pEncountr",
        "label": "_nonces",
        "offset": 0,
        "slot": "5",
        "type": "t_mapping(t_address,t_struct(Counter)5609_storage)"
      },
      {
        "astId": 9719,
        "contract": "contracts/sales/pEncountr.sol:pEncountr",
        "label": "UNAUTHORIZED",
        "offset": 0,
        "slot": "6",
        "type": "t_string_storage"
      },
      {
        "astId": 9721,
        "contract": "contracts/sales/pEncountr.sol:pEncountr",
        "label": "authority",
        "offset": 0,
        "slot": "7",
        "type": "t_contract(IEncountrAuthority)4782"
      },
      {
        "astId": 8358,
        "contract": "contracts/sales/pEncountr.sol:pEncountr",
        "label": "requireSellerApproval",
        "offset": 20,
        "slot": "7",
        "type": "t_bool"
      },
      {
        "astId": 8360,
        "contract": "contracts/sales/pEncountr.sol:pEncountr",
        "label": "allowMinting",
        "offset": 21,
        "slot": "7",
        "type": "t_bool"
      },
      {
        "astId": 8364,
        "contract": "contracts/sales/pEncountr.sol:pEncountr",
        "label": "isApprovedSeller",
        "offset": 0,
        "slot": "8",
        "type": "t_mapping(t_address,t_bool)"
      }
    ],
    "types": {
      "t_address": {
        "encoding": "inplace",
        "label": "address",
        "numberOfBytes": "20"
      },
      "t_bool": {
        "encoding": "inplace",
        "label": "bool",
        "numberOfBytes": "1"
      },
      "t_contract(IEncountrAuthority)4782": {
        "encoding": "inplace",
        "label": "contract IEncountrAuthority",
        "numberOfBytes": "20"
      },
      "t_mapping(t_address,t_bool)": {
        "encoding": "mapping",
        "key": "t_address",
        "label": "mapping(address => bool)",
        "numberOfBytes": "32",
        "value": "t_bool"
      },
      "t_mapping(t_address,t_mapping(t_address,t_uint256))": {
        "encoding": "mapping",
        "key": "t_address",
        "label": "mapping(address => mapping(address => uint256))",
        "numberOfBytes": "32",
        "value": "t_mapping(t_address,t_uint256)"
      },
      "t_mapping(t_address,t_struct(Counter)5609_storage)": {
        "encoding": "mapping",
        "key": "t_address",
        "label": "mapping(address => struct Counters.Counter)",
        "numberOfBytes": "32",
        "value": "t_struct(Counter)5609_storage"
      },
      "t_mapping(t_address,t_uint256)": {
        "encoding": "mapping",
        "key": "t_address",
        "label": "mapping(address => uint256)",
        "numberOfBytes": "32",
        "value": "t_uint256"
      },
      "t_string_storage": {
        "encoding": "bytes",
        "label": "string",
        "numberOfBytes": "32"
      },
      "t_struct(Counter)5609_storage": {
        "encoding": "inplace",
        "label": "struct Counters.Counter",
        "members": [
          {
            "astId": 5608,
            "contract": "contracts/sales/pEncountr.sol:pEncountr",
            "label": "_value",
            "offset": 0,
            "slot": "0",
            "type": "t_uint256"
          }
        ],
        "numberOfBytes": "32"
      },
      "t_uint256": {
        "encoding": "inplace",
        "label": "uint256",
        "numberOfBytes": "32"
      }
    }
  }
}