{
  "address": "0xEA51A2e1967B31b6dF6B823ef5ECCd8a6Ca12400",
  "abi": [
    {
      "inputs": [
        {
          "internalType": "address",
          "name": "_encountr",
          "type": "address"
        },
        {
          "internalType": "uint256",
          "name": "_timelock",
          "type": "uint256"
        },
        {
          "internalType": "address",
          "name": "_authority",
          "type": "address"
        }
      ],
      "stateMutability": "nonpayable",
      "type": "constructor"
    },
    {
      "anonymous": false,
      "inputs": [
        {
          "indexed": true,
          "internalType": "contract IEncountrAuthority",
          "name": "authority",
          "type": "address"
        }
      ],
      "name": "AuthorityUpdated",
      "type": "event"
    },
    {
      "anonymous": false,
      "inputs": [
        {
          "indexed": true,
          "internalType": "address",
          "name": "debtor",
          "type": "address"
        },
        {
          "indexed": true,
          "internalType": "address",
          "name": "token",
          "type": "address"
        },
        {
          "indexed": false,
          "internalType": "uint256",
          "name": "amount",
          "type": "uint256"
        },
        {
          "indexed": false,
          "internalType": "uint256",
          "name": "value",
          "type": "uint256"
        }
      ],
      "name": "CreateDebt",
      "type": "event"
    },
    {
      "anonymous": false,
      "inputs": [
        {
          "indexed": true,
          "internalType": "address",
          "name": "token",
          "type": "address"
        },
        {
          "indexed": false,
          "internalType": "uint256",
          "name": "amount",
          "type": "uint256"
        },
        {
          "indexed": false,
          "internalType": "uint256",
          "name": "value",
          "type": "uint256"
        }
      ],
      "name": "Deposit",
      "type": "event"
    },
    {
      "anonymous": false,
      "inputs": [
        {
          "indexed": true,
          "internalType": "address",
          "name": "token",
          "type": "address"
        },
        {
          "indexed": false,
          "internalType": "uint256",
          "name": "amount",
          "type": "uint256"
        }
      ],
      "name": "Managed",
      "type": "event"
    },
    {
      "anonymous": false,
      "inputs": [
        {
          "indexed": true,
          "internalType": "address",
          "name": "caller",
          "type": "address"
        },
        {
          "indexed": true,
          "internalType": "address",
          "name": "recipient",
          "type": "address"
        },
        {
          "indexed": false,
          "internalType": "uint256",
          "name": "amount",
          "type": "uint256"
        }
      ],
      "name": "Minted",
      "type": "event"
    },
    {
      "anonymous": false,
      "inputs": [
        {
          "indexed": true,
          "internalType": "enum EncountrTreasury.STATUS",
          "name": "status",
          "type": "uint8"
        },
        {
          "indexed": false,
          "internalType": "address",
          "name": "queued",
          "type": "address"
        }
      ],
      "name": "PermissionQueued",
      "type": "event"
    },
    {
      "anonymous": false,
      "inputs": [
        {
          "indexed": false,
          "internalType": "address",
          "name": "addr",
          "type": "address"
        },
        {
          "indexed": true,
          "internalType": "enum EncountrTreasury.STATUS",
          "name": "status",
          "type": "uint8"
        },
        {
          "indexed": false,
          "internalType": "bool",
          "name": "result",
          "type": "bool"
        }
      ],
      "name": "Permissioned",
      "type": "event"
    },
    {
      "anonymous": false,
      "inputs": [
        {
          "indexed": true,
          "internalType": "address",
          "name": "debtor",
          "type": "address"
        },
        {
          "indexed": true,
          "internalType": "address",
          "name": "token",
          "type": "address"
        },
        {
          "indexed": false,
          "internalType": "uint256",
          "name": "amount",
          "type": "uint256"
        },
        {
          "indexed": false,
          "internalType": "uint256",
          "name": "value",
          "type": "uint256"
        }
      ],
      "name": "RepayDebt",
      "type": "event"
    },
    {
      "anonymous": false,
      "inputs": [
        {
          "indexed": true,
          "internalType": "uint256",
          "name": "totalReserves",
          "type": "uint256"
        }
      ],
      "name": "ReservesAudited",
      "type": "event"
    },
    {
      "anonymous": false,
      "inputs": [
        {
          "indexed": true,
          "internalType": "address",
          "name": "token",
          "type": "address"
        },
        {
          "indexed": false,
          "internalType": "uint256",
          "name": "amount",
          "type": "uint256"
        },
        {
          "indexed": false,
          "internalType": "uint256",
          "name": "value",
          "type": "uint256"
        }
      ],
      "name": "Withdrawal",
      "type": "event"
    },
    {
      "inputs": [],
      "name": "ENCTR",
      "outputs": [
        {
          "internalType": "contract IENCTR",
          "name": "",
          "type": "address"
        }
      ],
      "stateMutability": "view",
      "type": "function"
    },
    {
      "inputs": [],
      "name": "auditReserves",
      "outputs": [],
      "stateMutability": "nonpayable",
      "type": "function"
    },
    {
      "inputs": [],
      "name": "authority",
      "outputs": [
        {
          "internalType": "contract IEncountrAuthority",
          "name": "",
          "type": "address"
        }
      ],
      "stateMutability": "view",
      "type": "function"
    },
    {
      "inputs": [],
      "name": "baseSupply",
      "outputs": [
        {
          "internalType": "uint256",
          "name": "",
          "type": "uint256"
        }
      ],
      "stateMutability": "view",
      "type": "function"
    },
    {
      "inputs": [],
      "name": "blocksNeededForQueue",
      "outputs": [
        {
          "internalType": "uint256",
          "name": "",
          "type": "uint256"
        }
      ],
      "stateMutability": "view",
      "type": "function"
    },
    {
      "inputs": [
        {
          "internalType": "address",
          "name": "",
          "type": "address"
        }
      ],
      "name": "bondCalculator",
      "outputs": [
        {
          "internalType": "address",
          "name": "",
          "type": "address"
        }
      ],
      "stateMutability": "view",
      "type": "function"
    },
    {
      "inputs": [
        {
          "internalType": "address",
          "name": "",
          "type": "address"
        }
      ],
      "name": "debtLimit",
      "outputs": [
        {
          "internalType": "uint256",
          "name": "",
          "type": "uint256"
        }
      ],
      "stateMutability": "view",
      "type": "function"
    },
    {
      "inputs": [
        {
          "internalType": "uint256",
          "name": "_amount",
          "type": "uint256"
        },
        {
          "internalType": "address",
          "name": "_token",
          "type": "address"
        },
        {
          "internalType": "uint256",
          "name": "_profit",
          "type": "uint256"
        }
      ],
      "name": "deposit",
      "outputs": [
        {
          "internalType": "uint256",
          "name": "send_",
          "type": "uint256"
        }
      ],
      "stateMutability": "nonpayable",
      "type": "function"
    },
    {
      "inputs": [
        {
          "internalType": "enum EncountrTreasury.STATUS",
          "name": "_status",
          "type": "uint8"
        },
        {
          "internalType": "address",
          "name": "_toDisable",
          "type": "address"
        }
      ],
      "name": "disable",
      "outputs": [],
      "stateMutability": "nonpayable",
      "type": "function"
    },
    {
      "inputs": [],
      "name": "disableTimelock",
      "outputs": [],
      "stateMutability": "nonpayable",
      "type": "function"
    },
    {
      "inputs": [
        {
          "internalType": "enum EncountrTreasury.STATUS",
          "name": "_status",
          "type": "uint8"
        },
        {
          "internalType": "address",
          "name": "_address",
          "type": "address"
        },
        {
          "internalType": "address",
          "name": "_calculator",
          "type": "address"
        }
      ],
      "name": "enable",
      "outputs": [],
      "stateMutability": "nonpayable",
      "type": "function"
    },
    {
      "inputs": [],
      "name": "encountrDebt",
      "outputs": [
        {
          "internalType": "uint256",
          "name": "",
          "type": "uint256"
        }
      ],
      "stateMutability": "view",
      "type": "function"
    },
    {
      "inputs": [],
      "name": "excessReserves",
      "outputs": [
        {
          "internalType": "uint256",
          "name": "",
          "type": "uint256"
        }
      ],
      "stateMutability": "view",
      "type": "function"
    },
    {
      "inputs": [
        {
          "internalType": "uint256",
          "name": "_index",
          "type": "uint256"
        }
      ],
      "name": "execute",
      "outputs": [],
      "stateMutability": "nonpayable",
      "type": "function"
    },
    {
      "inputs": [
        {
          "internalType": "uint256",
          "name": "_amount",
          "type": "uint256"
        },
        {
          "internalType": "address",
          "name": "_token",
          "type": "address"
        }
      ],
      "name": "incurDebt",
      "outputs": [],
      "stateMutability": "nonpayable",
      "type": "function"
    },
    {
      "inputs": [
        {
          "internalType": "address",
          "name": "_address",
          "type": "address"
        },
        {
          "internalType": "enum EncountrTreasury.STATUS",
          "name": "_status",
          "type": "uint8"
        }
      ],
      "name": "indexInRegistry",
      "outputs": [
        {
          "internalType": "bool",
          "name": "",
          "type": "bool"
        },
        {
          "internalType": "uint256",
          "name": "",
          "type": "uint256"
        }
      ],
      "stateMutability": "view",
      "type": "function"
    },
    {
      "inputs": [],
      "name": "initialize",
      "outputs": [],
      "stateMutability": "nonpayable",
      "type": "function"
    },
    {
      "inputs": [],
      "name": "initialized",
      "outputs": [
        {
          "internalType": "bool",
          "name": "",
          "type": "bool"
        }
      ],
      "stateMutability": "view",
      "type": "function"
    },
    {
      "inputs": [
        {
          "internalType": "uint256",
          "name": "_status",
          "type": "uint256"
        },
        {
          "internalType": "address",
          "name": "_address",
          "type": "address"
        }
      ],
      "name": "isPermitted",
      "outputs": [
        {
          "internalType": "bool",
          "name": "",
          "type": "bool"
        }
      ],
      "stateMutability": "view",
      "type": "function"
    },
    {
      "inputs": [
        {
          "internalType": "address",
          "name": "_token",
          "type": "address"
        },
        {
          "internalType": "uint256",
          "name": "_amount",
          "type": "uint256"
        }
      ],
      "name": "manage",
      "outputs": [],
      "stateMutability": "nonpayable",
      "type": "function"
    },
    {
      "inputs": [
        {
          "internalType": "address",
          "name": "_recipient",
          "type": "address"
        },
        {
          "internalType": "uint256",
          "name": "_amount",
          "type": "uint256"
        }
      ],
      "name": "mint",
      "outputs": [],
      "stateMutability": "nonpayable",
      "type": "function"
    },
    {
      "inputs": [
        {
          "internalType": "uint256",
          "name": "_index",
          "type": "uint256"
        }
      ],
      "name": "nullify",
      "outputs": [],
      "stateMutability": "nonpayable",
      "type": "function"
    },
    {
      "inputs": [],
      "name": "onChainGovernanceTimelock",
      "outputs": [
        {
          "internalType": "uint256",
          "name": "",
          "type": "uint256"
        }
      ],
      "stateMutability": "view",
      "type": "function"
    },
    {
      "inputs": [
        {
          "internalType": "uint256",
          "name": "",
          "type": "uint256"
        }
      ],
      "name": "permissionQueue",
      "outputs": [
        {
          "internalType": "enum EncountrTreasury.STATUS",
          "name": "managing",
          "type": "uint8"
        },
        {
          "internalType": "address",
          "name": "toPermit",
          "type": "address"
        },
        {
          "internalType": "address",
          "name": "calculator",
          "type": "address"
        },
        {
          "internalType": "uint256",
          "name": "timelockEnd",
          "type": "uint256"
        },
        {
          "internalType": "bool",
          "name": "nullify",
          "type": "bool"
        },
        {
          "internalType": "bool",
          "name": "executed",
          "type": "bool"
        }
      ],
      "stateMutability": "view",
      "type": "function"
    },
    {
      "inputs": [
        {
          "internalType": "enum EncountrTreasury.STATUS",
          "name": "",
          "type": "uint8"
        },
        {
          "internalType": "address",
          "name": "",
          "type": "address"
        }
      ],
      "name": "permissions",
      "outputs": [
        {
          "internalType": "bool",
          "name": "",
          "type": "bool"
        }
      ],
      "stateMutability": "view",
      "type": "function"
    },
    {
      "inputs": [
        {
          "internalType": "enum EncountrTreasury.STATUS",
          "name": "_status",
          "type": "uint8"
        },
        {
          "internalType": "address",
          "name": "_address",
          "type": "address"
        },
        {
          "internalType": "address",
          "name": "_calculator",
          "type": "address"
        }
      ],
      "name": "queueTimelock",
      "outputs": [],
      "stateMutability": "nonpayable",
      "type": "function"
    },
    {
      "inputs": [
        {
          "internalType": "enum EncountrTreasury.STATUS",
          "name": "",
          "type": "uint8"
        },
        {
          "internalType": "uint256",
          "name": "",
          "type": "uint256"
        }
      ],
      "name": "registry",
      "outputs": [
        {
          "internalType": "address",
          "name": "",
          "type": "address"
        }
      ],
      "stateMutability": "view",
      "type": "function"
    },
    {
      "inputs": [
        {
          "internalType": "uint256",
          "name": "_amount",
          "type": "uint256"
        }
      ],
      "name": "repayDebtWithENCTR",
      "outputs": [],
      "stateMutability": "nonpayable",
      "type": "function"
    },
    {
      "inputs": [
        {
          "internalType": "uint256",
          "name": "_amount",
          "type": "uint256"
        },
        {
          "internalType": "address",
          "name": "_token",
          "type": "address"
        }
      ],
      "name": "repayDebtWithReserve",
      "outputs": [],
      "stateMutability": "nonpayable",
      "type": "function"
    },
    {
      "inputs": [],
      "name": "sENCTR",
      "outputs": [
        {
          "internalType": "contract IsENCTR",
          "name": "",
          "type": "address"
        }
      ],
      "stateMutability": "view",
      "type": "function"
    },
    {
      "inputs": [
        {
          "internalType": "contract IEncountrAuthority",
          "name": "_newAuthority",
          "type": "address"
        }
      ],
      "name": "setAuthority",
      "outputs": [],
      "stateMutability": "nonpayable",
      "type": "function"
    },
    {
      "inputs": [
        {
          "internalType": "address",
          "name": "_address",
          "type": "address"
        },
        {
          "internalType": "uint256",
          "name": "_limit",
          "type": "uint256"
        }
      ],
      "name": "setDebtLimit",
      "outputs": [],
      "stateMutability": "nonpayable",
      "type": "function"
    },
    {
      "inputs": [],
      "name": "timelockEnabled",
      "outputs": [
        {
          "internalType": "bool",
          "name": "",
          "type": "bool"
        }
      ],
      "stateMutability": "view",
      "type": "function"
    },
    {
      "inputs": [
        {
          "internalType": "address",
          "name": "_token",
          "type": "address"
        },
        {
          "internalType": "uint256",
          "name": "_amount",
          "type": "uint256"
        }
      ],
      "name": "tokenValue",
      "outputs": [
        {
          "internalType": "uint256",
          "name": "value_",
          "type": "uint256"
        }
      ],
      "stateMutability": "view",
      "type": "function"
    },
    {
      "inputs": [],
      "name": "totalDebt",
      "outputs": [
        {
          "internalType": "uint256",
          "name": "",
          "type": "uint256"
        }
      ],
      "stateMutability": "view",
      "type": "function"
    },
    {
      "inputs": [],
      "name": "totalReserves",
      "outputs": [
        {
          "internalType": "uint256",
          "name": "",
          "type": "uint256"
        }
      ],
      "stateMutability": "view",
      "type": "function"
    },
    {
      "inputs": [
        {
          "internalType": "uint256",
          "name": "_amount",
          "type": "uint256"
        },
        {
          "internalType": "address",
          "name": "_token",
          "type": "address"
        }
      ],
      "name": "withdraw",
      "outputs": [],
      "stateMutability": "nonpayable",
      "type": "function"
    }
  ],
  "transactionHash": "0xebbdbd5a0fb930e45aa937bba9f4d4bcab43607cb5117fac65ff5bf132f579ba",
  "args": [
    "0x6a9dDFAe3808eb722642138B4133959498cb8069",
    6600,
    "0x7BC2aD91ADd329247346049Da299d7fE30D85e49"
  ],
  "numDeployments": 1,
  "solcInputHash": "c5b3a226cdd2d1b7726361c56a96f40c",
  "bytecode": "0x610100604052600c60c08190526b15539055551213d49256915160a21b60e090815262000030916000919062000261565b506040805180820190915260168082527f54726561737572793a206e6f742061636365707465640000000000000000000060209092019182526200007791600d9162000261565b506040805180820190915260168082527f54726561737572793a206e6f7420617070726f766564000000000000000000006020909201918252620000be91600e9162000261565b506040805180820190915260178082527f54726561737572793a20696e76616c696420746f6b656e00000000000000000060209092019182526200010591600f9162000261565b5060408051808201909152601f8082527f54726561737572793a20696e73756666696369656e742072657365727665730060209092019182526200014c9160109162000261565b503480156200015a57600080fd5b506040516200422538038062004225833981810160405260608110156200018057600080fd5b5080516020820151604092830151600180546001600160a01b0319166001600160a01b038316908117909155935192939192909182917f2f658b440c35314f52658ea8a740e05b284cdc84dc9ae01e891f21b8933e7cad90600090a2506001600160a01b03831662000239576040805162461bcd60e51b815260206004820152601360248201527f5a65726f20616464726573733a20454e43545200000000000000000000000000604482015290519081900360640190fd5b5060609190911b6001600160601b031916608052600b805461ffff1916905560a0526200030d565b828054600181600116156101000203166002900490600052602060002090601f016020900481019282620002995760008555620002e4565b82601f10620002b457805160ff1916838001178555620002e4565b82800160010185558215620002e4579182015b82811115620002e4578251825591602001919060010190620002c7565b50620002f2929150620002f6565b5090565b5b80821115620002f25760008155600101620002f7565b60805160601c60a051613eab6200037a6000398061147452806114cc528061251a5280612c2a5250806108ca5280610d1e5280610db952806111a35280611202528061175c52806118655280611de15280611f0b52806126b05280612b30528061327a5250613eab6000f3fe608060405234801561001057600080fd5b50600436106102765760003560e01c806371a45c9511610160578063b320f6a9116100d8578063d796ffb81161008c578063f182178311610071578063f1821783146106f4578063fc7b9c1814610720578063fe0d94c11461072857610276565b8063d796ffb814610691578063e4e33ef8146106bd57610276565b8063bc157ac1116100bd578063bc157ac11461064f578063bf7e214f14610681578063d07f390f1461068957610276565b8063b320f6a91461063f578063b39df88e1461064757610276565b8063860f50481161012f57806393988b531161011457806393988b53146105a35780639edd8d43146105ed578063a44b82871461061957610276565b8063860f5048146105935780638f840ddd1461059b57610276565b806371a45c95146105405780637a9e5e4b1461055d5780637d921af0146105835780638129fc1c1461058b57610276565b80631f900e1a116101f3578063503edcf0116101c257806352991831116101a757806352991831146104e35780635619004b1461051257806360ac3a9a1461053857610276565b8063503edcf01461046457806351297825146104db57610276565b80631f900e1a146103e45780632b7ce50014610401578063330dd3451461040957806340c10f191461043857610276565b80630c3513a81161024a578063158ef93e1161022f578063158ef93e1461037f5780631af4da70146103875780631d6d5f05146103ad57610276565b80630c3513a81461033957806312422d231461035357610276565b8062f714ce1461027b5780630a6c9a21146102a95780630a88d0d6146102e95780630b0eee301461030d575b600080fd5b6102a76004803603604081101561029157600080fd5b50803590602001356001600160a01b0316610745565b005b6102d5600480360360408110156102bf57600080fd5b50803590602001356001600160a01b03166109c4565b604080519115158252519081900360200190f35b6102f1610a1f565b604080516001600160a01b039092168252519081900360200190f35b6102a76004803603604081101561032357600080fd5b506001600160a01b038135169060200135610a2e565b610341610d11565b60408051918252519081900360200190f35b6102a76004803603604081101561036957600080fd5b50803590602001356001600160a01b0316610db5565b6102d56112e8565b6102f16004803603602081101561039d57600080fd5b50356001600160a01b03166112f6565b6102a7600480360360608110156103c357600080fd5b5060ff813516906001600160a01b0360208201358116916040013516611311565b6102a7600480360360208110156103fa57600080fd5b5035611663565b6102a76118b6565b6102d56004803603604081101561041f57600080fd5b50803560ff1690602001356001600160a01b0316611cb4565b6102a76004803603604081101561044e57600080fd5b506001600160a01b038135169060200135611cd4565b6104816004803603602081101561047a57600080fd5b5035611eb2565b6040518087600a81111561049157fe5b8152602001866001600160a01b03168152602001856001600160a01b0316815260200184815260200183151581526020018215158152602001965050505050505060405180910390f35b6102f1611f09565b6102a7600480360360408110156104f957600080fd5b50803560ff1690602001356001600160a01b0316611f2d565b6103416004803603602081101561052857600080fd5b50356001600160a01b0316612135565b610341612147565b6102a76004803603602081101561055657600080fd5b503561214d565b6102a76004803603602081101561057357600080fd5b50356001600160a01b031661226d565b6102a76123a3565b6102a7612546565b6103416126a9565b610341612739565b6105d2600480360360408110156105b957600080fd5b5080356001600160a01b0316906020013560ff1661273f565b60408051921515835260208301919091528051918290030190f35b6102a76004803603604081101561060357600080fd5b506001600160a01b038135169060200135612827565b6102f16004803603604081101561062f57600080fd5b5060ff813516906020013561292f565b6102d5612967565b610341612970565b6103416004803603606081101561066557600080fd5b508035906001600160a01b036020820135169060400135612976565b6102f1612c19565b610341612c28565b6102a7600480360360408110156106a757600080fd5b50803590602001356001600160a01b0316612c4c565b6102a7600480360360608110156106d357600080fd5b5060ff813516906001600160a01b0360208201358116916040013516612e89565b6103416004803603604081101561070a57600080fd5b506001600160a01b0381351690602001356131e9565b6103416133d7565b6102a76004803603602081101561073e57600080fd5b50356133dd565b6001600160a01b03811660009081527f91da3fd0782e51c6b3986e9e672fd566868e71f3dbc2d6c2cd6fbb3e361af2a76020526040902054600d9060ff166108205760405162461bcd60e51b81526020600482019081528254600260001961010060018416150201909116046024830181905290918291604490910190849080156108115780601f106107e657610100808354040283529160200191610811565b820191906000526020600020905b8154815290600101906020018083116107f457829003601f168201915b50509250505060405180910390fd5b503360009081527fabd6e7cb50984ff9c2f3e18a2660c3353dadf4e3291deeb275dae2cd1e44fe056020526040902054600e9060ff166108b95760405162461bcd60e51b81526020600482019081528254600260001961010060018416150201909116046024830181905290918291604490910190849080156108115780601f106107e657610100808354040283529160200191610811565b5060006108c682846131e9565b90507f00000000000000000000000000000000000000000000000000000000000000006001600160a01b03166379cc679033836040518363ffffffff1660e01b815260040180836001600160a01b0316815260200182815260200192505050600060405180830381600087803b15801561093f57600080fd5b505af1158015610953573d6000803e3d6000fd5b505060075461096592509050826138ee565b60075561097c6001600160a01b0383163385613937565b604080518481526020810183905281516001600160a01b038516927fdf273cb619d95419a9cd0ec88123a0538c85064229baa6363788f743fff90deb928290030190a2505050565b60006004600084600a8111156109d657fe5b600a8111156109e157fe5b600a8111156109ec57fe5b8152602080820192909252604090810160009081206001600160a01b038616825290925290205460ff1690505b92915050565b6002546001600160a01b031681565b6001600160a01b03821660009081527f04cde762ef08b6b6c5ded8e8c4c0b3f4e5c9ad7342c88fcc93681b4588b73f05602052604090205460ff1615610b0c573360009081527fc59312466997bb42aaaf719ece141047820e6b34531e1670dc1852a453648f0f6020526040902054600e9060ff16610b065760405162461bcd60e51b81526020600482019081528254600260001961010060018416150201909116046024830181905290918291604490910190849080156108115780601f106107e657610100808354040283529160200191610811565b50610ba6565b3360009081527f2e174c10e159ea99b867ce3205125c24a42d128804e4070ed6fcc8cc98166aa06020526040902054600e9060ff16610ba45760405162461bcd60e51b81526020600482019081528254600260001961010060018416150201909116046024830181905290918291604490910190849080156108115780601f106107e657610100808354040283529160200191610811565b505b6001600160a01b03821660009081527f91da3fd0782e51c6b3986e9e672fd566868e71f3dbc2d6c2cd6fbb3e361af2a7602052604090205460ff1680610c2357506001600160a01b03821660009081527f04cde762ef08b6b6c5ded8e8c4c0b3f4e5c9ad7342c88fcc93681b4588b73f05602052604090205460ff165b15610cba576000610c3483836131e9565b9050610c3e610d11565b811115601090610ca75760405162461bcd60e51b81526020600482019081528254600260001961010060018416150201909116046024830181905290918291604490910190849080156108115780601f106107e657610100808354040283529160200191610811565b50600754610cb590826138ee565b600755505b610cce6001600160a01b0383163383613937565b6040805182815290516001600160a01b038416917fb4460e34f1e91c4fa28eb7fac4cbd88cf530ef54a67e1978cd5edd9f77033ead919081900360200190a25050565b6000610db0610da76008547f00000000000000000000000000000000000000000000000000000000000000006001600160a01b03166318160ddd6040518163ffffffff1660e01b815260040160206040518083038186803b158015610d7557600080fd5b505afa158015610d89573d6000803e3d6000fd5b505050506040513d6020811015610d9f57600080fd5b5051906138ee565b600754906138ee565b905090565b60007f00000000000000000000000000000000000000000000000000000000000000006001600160a01b0316826001600160a01b03161415610e92573360009081527f5c6b02db8b672415ffad906d7ccee10bd53dbad7d0b29e2bc0e50c93d5f310936020526040902054600e9060ff16610e895760405162461bcd60e51b81526020600482019081528254600260001961010060018416150201909116046024830181905290918291604490910190849080156108115780601f106107e657610100808354040283529160200191610811565b50829050610fda565b3360009081527fbeb3bad75134cb432e5707980e3245c52c5998a1125ee30f2f0dbf3925b1e5516020526040902054600e9060ff16610f2a5760405162461bcd60e51b81526020600482019081528254600260001961010060018416150201909116046024830181905290918291604490910190849080156108115780601f106107e657610100808354040283529160200191610811565b506001600160a01b03821660009081527f91da3fd0782e51c6b3986e9e672fd566868e71f3dbc2d6c2cd6fbb3e361af2a76020526040902054600d9060ff16610fcc5760405162461bcd60e51b81526020600482019081528254600260001961010060018416150201909116046024830181905290918291604490910190849080156108115780601f106107e657610100808354040283529160200191610811565b50610fd782846131e9565b90505b600f816110405760405162461bcd60e51b81526020600482019081528254600260001961010060018416150201909116046024830181905290918291604490910190849080156108115780601f106107e657610100808354040283529160200191610811565b506002546040805163ae5c6cd360e01b8152600481018490523360248201526001604482015290516001600160a01b039092169163ae5c6cd39160648082019260009290919082900301818387803b15801561109b57600080fd5b505af11580156110af573d6000803e3d6000fd5b50503360008181526006602090815260409182902054600254835163313bc71360e21b8152600481019590955292519095506001600160a01b03909216935063c4ef1c4c9260248082019391829003018186803b15801561110f57600080fd5b505afa158015611123573d6000803e3d6000fd5b505050506040513d602081101561113957600080fd5b5051111561118e576040805162461bcd60e51b815260206004820152601760248201527f54726561737572793a2065786365656473206c696d6974000000000000000000604482015290519081900360640190fd5b60085461119b9082613ab6565b6008819055507f00000000000000000000000000000000000000000000000000000000000000006001600160a01b0316826001600160a01b0316141561127757604080516340c10f1960e01b81523360048201526024810183905290516001600160a01b037f000000000000000000000000000000000000000000000000000000000000000016916340c10f1991604480830192600092919082900301818387803b15801561124957600080fd5b505af115801561125d573d6000803e3d6000fd5b505060095461126f9250905082613ab6565b60095561129b565b60075461128490826138ee565b60075561129b6001600160a01b0383163385613937565b604080518481526020810183905281516001600160a01b0385169233927f7e1a939bed137a819b5d2979822c67f877689f7a863d5e4cb57cdca97b2977d6929081900390910190a3505050565b600b54610100900460ff1681565b6005602052600090815260409020546001600160a01b031681565b600160009054906101000a90046001600160a01b03166001600160a01b0316630c340a246040518163ffffffff1660e01b815260040160206040518083038186803b15801561135f57600080fd5b505afa158015611373573d6000803e3d6000fd5b505050506040513d602081101561138957600080fd5b50516000906001600160a01b031633146113fc5760405162461bcd60e51b81526020600482019081528254600260001961010060018416150201909116046024830181905290918291604490910190849080156108115780601f106107e657610100808354040283529160200191610811565b506001600160a01b03821661141057600080fd5b600b5460ff16151560011461146c576040805162461bcd60e51b815260206004820181905260248201527f54696d656c6f636b2069732064697361626c65642c2075736520656e61626c65604482015290519081900360640190fd5b6000611498437f0000000000000000000000000000000000000000000000000000000000000000613ab6565b9050600384600a8111156114a857fe5b14806114bf5750600684600a8111156114bd57fe5b145b156114fc576114f96114f27f00000000000000000000000000000000000000000000000000000000000000006002613b10565b4390613ab6565b90505b600a6040518060c0016040528086600a81111561151557fe5b81526001600160a01b0380871660208084019190915290861660408301526060820185905260006080830181905260a090920182905283546001818101865594835291208251600490920201805492939092839160ff199091169083600a81111561157c57fe5b0217905550602082015181547fffffffffffffffffffffff0000000000000000000000000000000000000000ff166101006001600160a01b03928316810291909117835560408401516001840180546001600160a01b03191691909316179091556060830151600283015560808301516003909201805460a09094015160ff199094169215159290921761ff0019169215150291909117905583600a81111561162157fe5b604080516001600160a01b038616815290517fc822ff41836a6dc998393c71843db8adcbbf01721f41b32389f6838ecb1ea9c89181900360200190a250505050565b3360009081527fbeb3bad75134cb432e5707980e3245c52c5998a1125ee30f2f0dbf3925b1e551602052604090205460ff16806116ce57503360009081527f5c6b02db8b672415ffad906d7ccee10bd53dbad7d0b29e2bc0e50c93d5f31093602052604090205460ff165b600e906117345760405162461bcd60e51b81526020600482019081528254600260001961010060018416150201909116046024830181905290918291604490910190849080156108115780601f106107e657610100808354040283529160200191610811565b506040805163079cc67960e41b81523360048201526024810183905290516001600160a01b037f000000000000000000000000000000000000000000000000000000000000000016916379cc679091604480830192600092919082900301818387803b1580156117a357600080fd5b505af11580156117b7573d6000803e3d6000fd5b50506002546040805163ae5c6cd360e01b81526004810186905233602482015260006044820181905291516001600160a01b03909316945063ae5c6cd393506064808201939182900301818387803b15801561181257600080fd5b505af1158015611826573d6000803e3d6000fd5b505060085461183892509050826138ee565b60085560095461184890826138ee565b600955604080518281526020810183905281516001600160a01b037f0000000000000000000000000000000000000000000000000000000000000000169233927fc6d98eecfc9c78ab62c89a82950079b54874749f1f6f24090f7acc758bc2f309929081900390910190a350565b600160009054906101000a90046001600160a01b03166001600160a01b0316630c340a246040518163ffffffff1660e01b815260040160206040518083038186803b15801561190457600080fd5b505afa158015611918573d6000803e3d6000fd5b505050506040513d602081101561192e57600080fd5b50516000906001600160a01b031633146119a15760405162461bcd60e51b81526020600482019081528254600260001961010060018416150201909116046024830181905290918291604490910190849080156108115780601f106107e657610100808354040283529160200191610811565b5060026000908152600360209081527fc3a24b0501bd2c13a7e57f2db4369ec4c223447539fc0724a9d55ac4a06ebd4d8054604080518285028101850190915281815260609390929190830182828015611a2457602002820191906000526020600020905b81546001600160a01b03168152600190910190602001808311611a06575b5050505050905060005b8151811015611b5d5760026000908152600460205282517f91da3fd0782e51c6b3986e9e672fd566868e71f3dbc2d6c2cd6fbb3e361af2a79190849084908110611a7457fe5b6020908102919091018101516001600160a01b031682528101919091526040016000205460ff1615611b5557611b52611b4b838381518110611ab257fe5b6020026020010151848481518110611ac657fe5b60200260200101516001600160a01b03166370a08231306040518263ffffffff1660e01b815260040180826001600160a01b0316815260200191505060206040518083038186803b158015611b1a57600080fd5b505afa158015611b2e573d6000803e3d6000fd5b505050506040513d6020811015611b4457600080fd5b50516131e9565b8490613ab6565b92505b600101611a2e565b506005600052600360209081527f405aad32e1adbac89bb7f176e338b8fc6e994ca210c9bb7bdca249b4659422508054604080518285028101850190915281815260609390929190830182828015611bde57602002820191906000526020600020905b81546001600160a01b03168152600190910190602001808311611bc0575b5050505050905060005b8151811015611c7e5760056000908152600460205282517f04cde762ef08b6b6c5ded8e8c4c0b3f4e5c9ad7342c88fcc93681b4588b73f059190849084908110611c2e57fe5b6020908102919091018101516001600160a01b031682528101919091526040016000205460ff1615611c7657611c73611c6c838381518110611ab257fe5b8590613ab6565b93505b600101611be8565b50600783905560405183907fec691f09f6924b27932253f85caf99bacc30360cc0e50a1cc4d2acc24601446690600090a2505050565b600460209081526000928352604080842090915290825290205460ff1681565b3360009081527f2645749a946633740611cfc8178319f0958659d6922e4bf7e3a08b44789f53a46020526040902054600e9060ff16611d6c5760405162461bcd60e51b81526020600482019081528254600260001961010060018416150201909116046024830181905290918291604490910190849080156108115780601f106107e657610100808354040283529160200191610811565b50611d75610d11565b811115601090611dde5760405162461bcd60e51b81526020600482019081528254600260001961010060018416150201909116046024830181905290918291604490910190849080156108115780601f106107e657610100808354040283529160200191610811565b507f00000000000000000000000000000000000000000000000000000000000000006001600160a01b03166340c10f1983836040518363ffffffff1660e01b815260040180836001600160a01b0316815260200182815260200192505050600060405180830381600087803b158015611e5657600080fd5b505af1158015611e6a573d6000803e3d6000fd5b50506040805184815290516001600160a01b03861693503392507f9d228d69b5fdb8d273a2336f8fb8612d039631024ea9bf09c424a9503aa078f09181900360200190a35050565b600a8181548110611ec257600080fd5b6000918252602090912060049091020180546001820154600283015460039093015460ff80841695506001600160a01b036101009485900481169593169382821692041686565b7f000000000000000000000000000000000000000000000000000000000000000081565b600160009054906101000a90046001600160a01b03166001600160a01b0316630c340a246040518163ffffffff1660e01b815260040160206040518083038186803b158015611f7b57600080fd5b505afa158015611f8f573d6000803e3d6000fd5b505050506040513d6020811015611fa557600080fd5b50516001600160a01b031633148061203e5750600160009054906101000a90046001600160a01b03166001600160a01b031663452a93206040518163ffffffff1660e01b815260040160206040518083038186803b15801561200657600080fd5b505afa15801561201a573d6000803e3d6000fd5b505050506040513d602081101561203057600080fd5b50516001600160a01b031633145b61208f576040805162461bcd60e51b815260206004820152601960248201527f4f6e6c7920676f7665726e6f72206f7220677561726469616e00000000000000604482015290519081900360640190fd5b60006004600084600a8111156120a157fe5b600a8111156120ac57fe5b8152602080820192909252604090810160009081206001600160a01b03861682529092529020805460ff191691151591909117905581600a8111156120ed57fe5b604080516001600160a01b03841681526000602082015281517f7531a7aefe3985500c4dec2dcb6049a708f14c6a8a9022b435b8841bdb8e1713929181900390910190a25050565b60066020526000908152604090205481565b60095481565b600160009054906101000a90046001600160a01b03166001600160a01b0316630c340a246040518163ffffffff1660e01b815260040160206040518083038186803b15801561219b57600080fd5b505afa1580156121af573d6000803e3d6000fd5b505050506040513d60208110156121c557600080fd5b50516000906001600160a01b031633146122385760405162461bcd60e51b81526020600482019081528254600260001961010060018416150201909116046024830181905290918291604490910190849080156108115780601f106107e657610100808354040283529160200191610811565b506001600a828154811061224857fe5b60009182526020909120600490910201600301805460ff191691151591909117905550565b600160009054906101000a90046001600160a01b03166001600160a01b0316630c340a246040518163ffffffff1660e01b815260040160206040518083038186803b1580156122bb57600080fd5b505afa1580156122cf573d6000803e3d6000fd5b505050506040513d60208110156122e557600080fd5b50516000906001600160a01b031633146123585760405162461bcd60e51b81526020600482019081528254600260001961010060018416150201909116046024830181905290918291604490910190849080156108115780601f106107e657610100808354040283529160200191610811565b50600180546001600160a01b0319166001600160a01b0383169081179091556040517f2f658b440c35314f52658ea8a740e05b284cdc84dc9ae01e891f21b8933e7cad90600090a250565b600160009054906101000a90046001600160a01b03166001600160a01b0316630c340a246040518163ffffffff1660e01b815260040160206040518083038186803b1580156123f157600080fd5b505afa158015612405573d6000803e3d6000fd5b505050506040513d602081101561241b57600080fd5b50516000906001600160a01b0316331461248e5760405162461bcd60e51b81526020600482019081528254600260001961010060018416150201909116046024830181905290918291604490910190849080156108115780601f106107e657610100808354040283529160200191610811565b50600b5460ff1615156001146124eb576040805162461bcd60e51b815260206004820152601960248201527f74696d656c6f636b20616c72656164792064697361626c656400000000000000604482015290519081900360640190fd5b600c54158015906124fe575043600c5411155b1561251257600b805460ff19169055612544565b6125406114f27f00000000000000000000000000000000000000000000000000000000000000006007613b10565b600c555b565b600160009054906101000a90046001600160a01b03166001600160a01b0316630c340a246040518163ffffffff1660e01b815260040160206040518083038186803b15801561259457600080fd5b505afa1580156125a8573d6000803e3d6000fd5b505050506040513d60208110156125be57600080fd5b50516000906001600160a01b031633146126315760405162461bcd60e51b81526020600482019081528254600260001961010060018416150201909116046024830181905290918291604490910190849080156108115780601f106107e657610100808354040283529160200191610811565b50600b54610100900460ff161561268f576040805162461bcd60e51b815260206004820152601360248201527f416c726561647920696e697469616c697a656400000000000000000000000000604482015290519081900360640190fd5b600b805461ff001960ff1990911660011716610100179055565b60006009547f00000000000000000000000000000000000000000000000000000000000000006001600160a01b03166318160ddd6040518163ffffffff1660e01b815260040160206040518083038186803b15801561270757600080fd5b505afa15801561271b573d6000803e3d6000fd5b505050506040513d602081101561273157600080fd5b505103905090565b60075481565b60008060606003600085600a81111561275457fe5b600a81111561275f57fe5b81526020019081526020016000208054806020026020016040519081016040528092919081815260200182805480156127c157602002820191906000526020600020905b81546001600160a01b031681526001909101906020018083116127a3575b5050505050905060005b8151811015612816578181815181106127e057fe5b60200260200101516001600160a01b0316866001600160a01b0316141561280e576001935091506128209050565b6001016127cb565b5060008092509250505b9250929050565b600160009054906101000a90046001600160a01b03166001600160a01b0316630c340a246040518163ffffffff1660e01b815260040160206040518083038186803b15801561287557600080fd5b505afa158015612889573d6000803e3d6000fd5b505050506040513d602081101561289f57600080fd5b50516000906001600160a01b031633146129125760405162461bcd60e51b81526020600482019081528254600260001961010060018416150201909116046024830181905290918291604490910190849080156108115780601f106107e657610100808354040283529160200191610811565b506001600160a01b03909116600090815260066020526040902055565b6003602052816000526040600020818154811061294b57600080fd5b6000918252602090912001546001600160a01b03169150829050565b600b5460ff1681565b600c5481565b6001600160a01b03821660009081527f91da3fd0782e51c6b3986e9e672fd566868e71f3dbc2d6c2cd6fbb3e361af2a7602052604081205460ff1615612a545760046000805b600a8111156129c757fe5b815260208082019290925260409081016000908120338252909252902054600e9060ff16612a4e5760405162461bcd60e51b81526020600482019081528254600260001961010060018416150201909116046024830181905290918291604490910190849080156108115780601f106107e657610100808354040283529160200191610811565b50612aff565b6001600160a01b03831660009081527f04cde762ef08b6b6c5ded8e8c4c0b3f4e5c9ad7342c88fcc93681b4588b73f05602052604090205460ff1615612a9e5760046000816129bc565b60405162461bcd60e51b8152602060048201908152600f8054600260001961010060018416150201909116046024840181905290928291604490910190849080156108115780601f106107e657610100808354040283529160200191610811565b612b146001600160a01b038416333087613b69565b6000612b2084866131e9565b9050612b2c81846138ee565b91507f00000000000000000000000000000000000000000000000000000000000000006001600160a01b03166340c10f1933846040518363ffffffff1660e01b815260040180836001600160a01b0316815260200182815260200192505050600060405180830381600087803b158015612ba557600080fd5b505af1158015612bb9573d6000803e3d6000fd5b5050600754612bcb9250905082613ab6565b600755604080518681526020810183905281516001600160a01b038716927f90890809c654f11d6e72a28fa60149770a0d11ec6c92319d6ceb2bb0a4ea1a15928290030190a2509392505050565b6001546001600160a01b031681565b7f000000000000000000000000000000000000000000000000000000000000000081565b3360009081527fbeb3bad75134cb432e5707980e3245c52c5998a1125ee30f2f0dbf3925b1e5516020526040902054600e9060ff16612ce45760405162461bcd60e51b81526020600482019081528254600260001961010060018416150201909116046024830181905290918291604490910190849080156108115780601f106107e657610100808354040283529160200191610811565b506001600160a01b03811660009081527f91da3fd0782e51c6b3986e9e672fd566868e71f3dbc2d6c2cd6fbb3e361af2a76020526040902054600d9060ff16612d865760405162461bcd60e51b81526020600482019081528254600260001961010060018416150201909116046024830181905290918291604490910190849080156108115780601f106107e657610100808354040283529160200191610811565b50612d9c6001600160a01b038216333085613b69565b6000612da882846131e9565b6002546040805163ae5c6cd360e01b81526004810184905233602482015260006044820181905291519394506001600160a01b039092169263ae5c6cd392606480820193929182900301818387803b158015612e0357600080fd5b505af1158015612e17573d6000803e3d6000fd5b5050600854612e2992509050826138ee565b600855600754612e399082613ab6565b600755604080518481526020810183905281516001600160a01b0385169233927fc6d98eecfc9c78ab62c89a82950079b54874749f1f6f24090f7acc758bc2f309929081900390910190a3505050565b600160009054906101000a90046001600160a01b03166001600160a01b0316630c340a246040518163ffffffff1660e01b815260040160206040518083038186803b158015612ed757600080fd5b505afa158015612eeb573d6000803e3d6000fd5b505050506040513d6020811015612f0157600080fd5b50516000906001600160a01b03163314612f745760405162461bcd60e51b81526020600482019081528254600260001961010060018416150201909116046024830181905290918291604490910190849080156108115780601f106107e657610100808354040283529160200191610811565b50600b5460ff1615612fcd576040805162461bcd60e51b815260206004820152601160248201527f55736520717565756554696d656c6f636b000000000000000000000000000000604482015290519081900360640190fd5b600983600a811115612fdb57fe5b141561300157600280546001600160a01b0319166001600160a01b038416179055613194565b60016004600085600a81111561301357fe5b600a81111561301e57fe5b8152602080820192909252604090810160009081206001600160a01b03871682529092529020805460ff1916911515919091179055600583600a81111561306157fe5b1415613096576001600160a01b03828116600090815260056020526040902080546001600160a01b0319169183169190911790555b60006130a2838561273f565b50905080613192576003600085600a8111156130ba57fe5b600a8111156130c557fe5b8152602080820192909252604001600090812080546001810182559082529190200180546001600160a01b0319166001600160a01b038516179055600584600a81111561310e57fe5b14806131255750600284600a81111561312357fe5b145b1561319257600080613137858761273f565b91509150811561318f576003600087600a81111561315157fe5b600a81111561315c57fe5b8152602001908152602001600020818154811061317557fe5b600091825260209091200180546001600160a01b03191690555b50505b505b82600a8111156131a057fe5b604080516001600160a01b03851681526001602082015281517f7531a7aefe3985500c4dec2dcb6049a708f14c6a8a9022b435b8841bdb8e1713929181900390910190a2505050565b6000613300836001600160a01b031663313ce5676040518163ffffffff1660e01b815260040160206040518083038186803b15801561322757600080fd5b505afa15801561323b573d6000803e3d6000fd5b505050506040513d602081101561325157600080fd5b50516040805163313ce56760e01b8152905160ff909216600a0a916132fa916001600160a01b037f0000000000000000000000000000000000000000000000000000000000000000169163313ce56791600480820192602092909190829003018186803b1580156132c157600080fd5b505afa1580156132d5573d6000803e3d6000fd5b505050506040513d60208110156132eb57600080fd5b5051859060ff16600a0a613b10565b90613cf1565b6001600160a01b03841660009081527f04cde762ef08b6b6c5ded8e8c4c0b3f4e5c9ad7342c88fcc93681b4588b73f05602052604090205490915060ff1615610a19576001600160a01b03808416600081815260056020908152604091829020548251634249719f60e01b815260048101949094526024840187905291519190931692634249719f9260448082019391829003018186803b1580156133a457600080fd5b505afa1580156133b8573d6000803e3d6000fd5b505050506040513d60208110156133ce57600080fd5b50519392505050565b60085481565b600b5460ff161515600114613439576040805162461bcd60e51b815260206004820181905260248201527f54696d656c6f636b2069732064697361626c65642c2075736520656e61626c65604482015290519081900360640190fd5b613441613e46565b600a828154811061344e57fe5b600091825260209091206040805160c081019091526004909202018054829060ff16600a81111561347b57fe5b600a81111561348657fe5b815281546001600160a01b03610100918290048116602084015260018401541660408301526002830154606083015260039092015460ff80821615156080808501919091529390910416151560a09091015281015190915015613530576040805162461bcd60e51b815260206004820152601960248201527f416374696f6e20686173206265656e206e756c6c696669656400000000000000604482015290519081900360640190fd5b8060a0015115613587576040805162461bcd60e51b815260206004820181905260248201527f416374696f6e2068617320616c7265616479206265656e206578656375746564604482015290519081900360640190fd5b80606001514310156135e0576040805162461bcd60e51b815260206004820152601560248201527f54696d656c6f636b206e6f7420636f6d706c6574650000000000000000000000604482015290519081900360640190fd5b60098151600a8111156135ef57fe5b141561361e576020810151600280546001600160a01b0319166001600160a01b03909216919091179055613856565b6001600460008360000151600a81111561363457fe5b600a81111561363f57fe5b815260208082019290925260409081016000908120858401516001600160a01b031682529092529020805460ff191691151591909117905560058151600a81111561368657fe5b14156136c7576040818101516020808401516001600160a01b039081166000908152600590925292902080546001600160a01b031916929091169190911790555b60006136db8260200151836000015161273f565b5090508061385457600360008360000151600a8111156136f757fe5b600a81111561370257fe5b81526020808201929092526040016000908120848301518154600181018355918352929091200180546001600160a01b0319166001600160a01b0390921691909117905560058251600a81111561375557fe5b14156137cf5760008061376d8460200151600261273f565b9150915081156137c857600260005260036020527fc3a24b0501bd2c13a7e57f2db4369ec4c223447539fc0724a9d55ac4a06ebd4d8054829081106137ae57fe5b600091825260209091200180546001600160a01b03191690555b5050613854565b60028251600a8111156137de57fe5b1415613854576000806137f68460200151600561273f565b91509150811561385157600560005260036020527f405aad32e1adbac89bb7f176e338b8fc6e994ca210c9bb7bdca249b46594225080548290811061383757fe5b600091825260209091200180546001600160a01b03191690555b50505b505b6001600a838154811061386557fe5b6000918252602090912060036004909202010180549115156101000261ff00199092169190911790558051600a81111561389b57fe5b7f7531a7aefe3985500c4dec2dcb6049a708f14c6a8a9022b435b8841bdb8e17138260200151600160405180836001600160a01b0316815260200182151581526020019250505060405180910390a25050565b600061393083836040518060400160405280601e81526020017f536166654d6174683a207375627472616374696f6e206f766572666c6f770000815250613d33565b9392505050565b604080516001600160a01b038481166024830152604480830185905283518084039091018152606490920183526020820180517bffffffffffffffffffffffffffffffffffffffffffffffffffffffff1663a9059cbb60e01b178152925182516000946060949389169392918291908083835b602083106139c95780518252601f1990920191602091820191016139aa565b6001836020036101000a0380198251168184511680821785525050505050509050019150506000604051808303816000865af19150503d8060008114613a2b576040519150601f19603f3d011682016040523d82523d6000602084013e613a30565b606091505b5091509150818015613a5e575080511580613a5e5750808060200190516020811015613a5b57600080fd5b50515b613aaf576040805162461bcd60e51b815260206004820152600f60248201527f5452414e534645525f4641494c45440000000000000000000000000000000000604482015290519081900360640190fd5b5050505050565b600082820183811015613930576040805162461bcd60e51b815260206004820152601b60248201527f536166654d6174683a206164646974696f6e206f766572666c6f770000000000604482015290519081900360640190fd5b600082613b1f57506000610a19565b82820282848281613b2c57fe5b04146139305760405162461bcd60e51b8152600401808060200182810382526021815260200180613e7e6021913960400191505060405180910390fd5b604080516001600160a01b0385811660248301528481166044830152606480830185905283518084039091018152608490920183526020820180517bffffffffffffffffffffffffffffffffffffffffffffffffffffffff166323b872dd60e01b17815292518251600094606094938a169392918291908083835b60208310613c035780518252601f199092019160209182019101613be4565b6001836020036101000a0380198251168184511680821785525050505050509050019150506000604051808303816000865af19150503d8060008114613c65576040519150601f19603f3d011682016040523d82523d6000602084013e613c6a565b606091505b5091509150818015613c98575080511580613c985750808060200190516020811015613c9557600080fd5b50515b613ce9576040805162461bcd60e51b815260206004820152601460248201527f5452414e534645525f46524f4d5f4641494c4544000000000000000000000000604482015290519081900360640190fd5b505050505050565b600061393083836040518060400160405280601a81526020017f536166654d6174683a206469766973696f6e206279207a65726f000000000000815250613dca565b60008184841115613dc25760405162461bcd60e51b81526004018080602001828103825283818151815260200191508051906020019080838360005b83811015613d87578181015183820152602001613d6f565b50505050905090810190601f168015613db45780820380516001836020036101000a031916815260200191505b509250505060405180910390fd5b505050900390565b60008183613e195760405162461bcd60e51b8152602060048201818152835160248401528351909283926044909101919085019080838360008315613d87578181015183820152602001613d6f565b506000838581613e2557fe5b049050838581613e3157fe5b06818502018514613e3e57fe5b949350505050565b6040805160c08101909152806000815260006020820181905260408201819052606082018190526080820181905260a0909101529056fe536166654d6174683a206d756c7469706c69636174696f6e206f766572666c6f77a164736f6c6343000705000a",
  "devdoc": {
    "kind": "dev",
    "methods": {
      "baseSupply()": {
        "details": "use this any time you need to query supply",
        "returns": {
          "_0": "uint256"
        }
      },
      "deposit(uint256,address,uint256)": {
        "params": {
          "_amount": "uint256",
          "_profit": "uint256",
          "_token": "address"
        },
        "returns": {
          "send_": "uint256"
        }
      },
      "disable(uint8,address)": {
        "params": {
          "_status": "STATUS",
          "_toDisable": "address"
        }
      },
      "enable(uint8,address,address)": {
        "params": {
          "_address": "address",
          "_calculator": "address",
          "_status": "STATUS"
        }
      },
      "excessReserves()": {
        "returns": {
          "_0": "uint"
        }
      },
      "execute(uint256)": {
        "params": {
          "_index": "uint256"
        }
      },
      "incurDebt(uint256,address)": {
        "params": {
          "_amount": "uint256",
          "_token": "address"
        }
      },
      "indexInRegistry(address,uint8)": {
        "returns": {
          "_0": "(bool, uint256)"
        }
      },
      "isPermitted(uint256,address)": {
        "params": {
          "_address": "address",
          "_status": "uint"
        },
        "returns": {
          "_0": "bool"
        }
      },
      "manage(address,uint256)": {
        "params": {
          "_amount": "uint256",
          "_token": "address"
        }
      },
      "mint(address,uint256)": {
        "params": {
          "_amount": "uint256",
          "_recipient": "address"
        }
      },
      "nullify(uint256)": {
        "params": {
          "_index": "uint256"
        }
      },
      "queueTimelock(uint8,address,address)": {
        "params": {
          "_address": "address",
          "_calculator": "address",
          "_status": "STATUS"
        }
      },
      "repayDebtWithENCTR(uint256)": {
        "params": {
          "_amount": "uint256"
        }
      },
      "repayDebtWithReserve(uint256,address)": {
        "params": {
          "_amount": "uint256",
          "_token": "address"
        }
      },
      "setDebtLimit(address,uint256)": {
        "params": {
          "_address": "address",
          "_limit": "uint256"
        }
      },
      "tokenValue(address,uint256)": {
        "params": {
          "_amount": "uint256",
          "_token": "address"
        },
        "returns": {
          "value_": "uint256"
        }
      },
      "withdraw(uint256,address)": {
        "params": {
          "_amount": "uint256",
          "_token": "address"
        }
      }
    },
    "version": 1
  },
  "userdoc": {
    "kind": "user",
    "methods": {
      "auditReserves()": {
        "notice": "takes inventory of all tracked assetsalways consolidate to recognized reserves before audit"
      },
      "baseSupply()": {
        "notice": "returns supply metric that cannot be manipulated by debt"
      },
      "deposit(uint256,address,uint256)": {
        "notice": "allow approved address to deposit an asset for ENCTR"
      },
      "disable(uint8,address)": {
        "notice": "disable permission from address"
      },
      "disableTimelock()": {
        "notice": "disables timelocked functions"
      },
      "enable(uint8,address,address)": {
        "notice": "enable permission from queue"
      },
      "excessReserves()": {
        "notice": "returns excess reserves not backing tokens"
      },
      "execute(uint256)": {
        "notice": "enable queued permission"
      },
      "incurDebt(uint256,address)": {
        "notice": "allow approved address to borrow reserves"
      },
      "indexInRegistry(address,uint8)": {
        "notice": "check if registry contains address"
      },
      "initialize()": {
        "notice": "enables timelocks after initilization"
      },
      "isPermitted(uint256,address)": {
        "notice": "returns a view into treasury permissions"
      },
      "manage(address,uint256)": {
        "notice": "allow approved address to withdraw assets"
      },
      "mint(address,uint256)": {
        "notice": "mint new ENCTR using excess reserves"
      },
      "nullify(uint256)": {
        "notice": "cancel timelocked action"
      },
      "queueTimelock(uint8,address,address)": {
        "notice": "queue address to receive permission"
      },
      "repayDebtWithENCTR(uint256)": {
        "notice": "allow approved address to repay borrowed reserves with ENCTR"
      },
      "repayDebtWithReserve(uint256,address)": {
        "notice": "allow approved address to repay borrowed reserves with reserves"
      },
      "setDebtLimit(address,uint256)": {
        "notice": "set max debt for address"
      },
      "tokenValue(address,uint256)": {
        "notice": "returns ENCTR valuation of asset"
      },
      "withdraw(uint256,address)": {
        "notice": "allow approved address to burn ENCTR for reserves"
      }
    },
    "version": 1
  },
  "storageLayout": {
    "storage": [
      {
        "astId": 9728,
        "contract": "contracts/Treasury.sol:EncountrTreasury",
        "label": "UNAUTHORIZED",
        "offset": 0,
        "slot": "0",
        "type": "t_string_storage"
      },
      {
        "astId": 9730,
        "contract": "contracts/Treasury.sol:EncountrTreasury",
        "label": "authority",
        "offset": 0,
        "slot": "1",
        "type": "t_contract(IEncountrAuthority)4782"
      },
      {
        "astId": 1834,
        "contract": "contracts/Treasury.sol:EncountrTreasury",
        "label": "sENCTR",
        "offset": 0,
        "slot": "2",
        "type": "t_contract(IsENCTR)5255"
      },
      {
        "astId": 1839,
        "contract": "contracts/Treasury.sol:EncountrTreasury",
        "label": "registry",
        "offset": 0,
        "slot": "3",
        "type": "t_mapping(t_enum(STATUS)1817,t_array(t_address)dyn_storage)"
      },
      {
        "astId": 1845,
        "contract": "contracts/Treasury.sol:EncountrTreasury",
        "label": "permissions",
        "offset": 0,
        "slot": "4",
        "type": "t_mapping(t_enum(STATUS)1817,t_mapping(t_address,t_bool))"
      },
      {
        "astId": 1849,
        "contract": "contracts/Treasury.sol:EncountrTreasury",
        "label": "bondCalculator",
        "offset": 0,
        "slot": "5",
        "type": "t_mapping(t_address,t_address)"
      },
      {
        "astId": 1853,
        "contract": "contracts/Treasury.sol:EncountrTreasury",
        "label": "debtLimit",
        "offset": 0,
        "slot": "6",
        "type": "t_mapping(t_address,t_uint256)"
      },
      {
        "astId": 1855,
        "contract": "contracts/Treasury.sol:EncountrTreasury",
        "label": "totalReserves",
        "offset": 0,
        "slot": "7",
        "type": "t_uint256"
      },
      {
        "astId": 1857,
        "contract": "contracts/Treasury.sol:EncountrTreasury",
        "label": "totalDebt",
        "offset": 0,
        "slot": "8",
        "type": "t_uint256"
      },
      {
        "astId": 1859,
        "contract": "contracts/Treasury.sol:EncountrTreasury",
        "label": "encountrDebt",
        "offset": 0,
        "slot": "9",
        "type": "t_uint256"
      },
      {
        "astId": 1862,
        "contract": "contracts/Treasury.sol:EncountrTreasury",
        "label": "permissionQueue",
        "offset": 0,
        "slot": "10",
        "type": "t_array(t_struct(Queue)1830_storage)dyn_storage"
      },
      {
        "astId": 1866,
        "contract": "contracts/Treasury.sol:EncountrTreasury",
        "label": "timelockEnabled",
        "offset": 0,
        "slot": "11",
        "type": "t_bool"
      },
      {
        "astId": 1868,
        "contract": "contracts/Treasury.sol:EncountrTreasury",
        "label": "initialized",
        "offset": 1,
        "slot": "11",
        "type": "t_bool"
      },
      {
        "astId": 1870,
        "contract": "contracts/Treasury.sol:EncountrTreasury",
        "label": "onChainGovernanceTimelock",
        "offset": 0,
        "slot": "12",
        "type": "t_uint256"
      },
      {
        "astId": 1873,
        "contract": "contracts/Treasury.sol:EncountrTreasury",
        "label": "notAccepted",
        "offset": 0,
        "slot": "13",
        "type": "t_string_storage"
      },
      {
        "astId": 1876,
        "contract": "contracts/Treasury.sol:EncountrTreasury",
        "label": "notApproved",
        "offset": 0,
        "slot": "14",
        "type": "t_string_storage"
      },
      {
        "astId": 1879,
        "contract": "contracts/Treasury.sol:EncountrTreasury",
        "label": "invalidToken",
        "offset": 0,
        "slot": "15",
        "type": "t_string_storage"
      },
      {
        "astId": 1882,
        "contract": "contracts/Treasury.sol:EncountrTreasury",
        "label": "insufficientReserves",
        "offset": 0,
        "slot": "16",
        "type": "t_string_storage"
      }
    ],
    "types": {
      "t_address": {
        "encoding": "inplace",
        "label": "address",
        "numberOfBytes": "20"
      },
      "t_array(t_address)dyn_storage": {
        "base": "t_address",
        "encoding": "dynamic_array",
        "label": "address[]",
        "numberOfBytes": "32"
      },
      "t_array(t_struct(Queue)1830_storage)dyn_storage": {
        "base": "t_struct(Queue)1830_storage",
        "encoding": "dynamic_array",
        "label": "struct EncountrTreasury.Queue[]",
        "numberOfBytes": "32"
      },
      "t_bool": {
        "encoding": "inplace",
        "label": "bool",
        "numberOfBytes": "1"
      },
      "t_contract(IEncountrAuthority)4782": {
        "encoding": "inplace",
        "label": "contract IEncountrAuthority",
        "numberOfBytes": "20"
      },
      "t_contract(IsENCTR)5255": {
        "encoding": "inplace",
        "label": "contract IsENCTR",
        "numberOfBytes": "20"
      },
      "t_enum(STATUS)1817": {
        "encoding": "inplace",
        "label": "enum EncountrTreasury.STATUS",
        "numberOfBytes": "1"
      },
      "t_mapping(t_address,t_address)": {
        "encoding": "mapping",
        "key": "t_address",
        "label": "mapping(address => address)",
        "numberOfBytes": "32",
        "value": "t_address"
      },
      "t_mapping(t_address,t_bool)": {
        "encoding": "mapping",
        "key": "t_address",
        "label": "mapping(address => bool)",
        "numberOfBytes": "32",
        "value": "t_bool"
      },
      "t_mapping(t_address,t_uint256)": {
        "encoding": "mapping",
        "key": "t_address",
        "label": "mapping(address => uint256)",
        "numberOfBytes": "32",
        "value": "t_uint256"
      },
      "t_mapping(t_enum(STATUS)1817,t_array(t_address)dyn_storage)": {
        "encoding": "mapping",
        "key": "t_enum(STATUS)1817",
        "label": "mapping(enum EncountrTreasury.STATUS => address[])",
        "numberOfBytes": "32",
        "value": "t_array(t_address)dyn_storage"
      },
      "t_mapping(t_enum(STATUS)1817,t_mapping(t_address,t_bool))": {
        "encoding": "mapping",
        "key": "t_enum(STATUS)1817",
        "label": "mapping(enum EncountrTreasury.STATUS => mapping(address => bool))",
        "numberOfBytes": "32",
        "value": "t_mapping(t_address,t_bool)"
      },
      "t_string_storage": {
        "encoding": "bytes",
        "label": "string",
        "numberOfBytes": "32"
      },
      "t_struct(Queue)1830_storage": {
        "encoding": "inplace",
        "label": "struct EncountrTreasury.Queue",
        "members": [
          {
            "astId": 1819,
            "contract": "contracts/Treasury.sol:EncountrTreasury",
            "label": "managing",
            "offset": 0,
            "slot": "0",
            "type": "t_enum(STATUS)1817"
          },
          {
            "astId": 1821,
            "contract": "contracts/Treasury.sol:EncountrTreasury",
            "label": "toPermit",
            "offset": 1,
            "slot": "0",
            "type": "t_address"
          },
          {
            "astId": 1823,
            "contract": "contracts/Treasury.sol:EncountrTreasury",
            "label": "calculator",
            "offset": 0,
            "slot": "1",
            "type": "t_address"
          },
          {
            "astId": 1825,
            "contract": "contracts/Treasury.sol:EncountrTreasury",
            "label": "timelockEnd",
            "offset": 0,
            "slot": "2",
            "type": "t_uint256"
          },
          {
            "astId": 1827,
            "contract": "contracts/Treasury.sol:EncountrTreasury",
            "label": "nullify",
            "offset": 0,
            "slot": "3",
            "type": "t_bool"
          },
          {
            "astId": 1829,
            "contract": "contracts/Treasury.sol:EncountrTreasury",
            "label": "executed",
            "offset": 1,
            "slot": "3",
            "type": "t_bool"
          }
        ],
        "numberOfBytes": "128"
      },
      "t_uint256": {
        "encoding": "inplace",
        "label": "uint256",
        "numberOfBytes": "32"
      }
    }
  }
}