{
  "address": "0xa26006e414DeF50994293712e6539c3598E7FEe6",
  "abi": [
    {
      "inputs": [
        {
          "internalType": "address",
          "name": "_sENCTR",
          "type": "address"
        }
      ],
      "stateMutability": "nonpayable",
      "type": "constructor"
    },
    {
      "anonymous": false,
      "inputs": [
        {
          "indexed": true,
          "internalType": "address",
          "name": "owner",
          "type": "address"
        },
        {
          "indexed": true,
          "internalType": "address",
          "name": "spender",
          "type": "address"
        },
        {
          "indexed": false,
          "internalType": "uint256",
          "name": "value",
          "type": "uint256"
        }
      ],
      "name": "Approval",
      "type": "event"
    },
    {
      "anonymous": false,
      "inputs": [
        {
          "indexed": true,
          "internalType": "address",
          "name": "delegator",
          "type": "address"
        },
        {
          "indexed": true,
          "internalType": "address",
          "name": "fromDelegate",
          "type": "address"
        },
        {
          "indexed": true,
          "internalType": "address",
          "name": "toDelegate",
          "type": "address"
        }
      ],
      "name": "DelegateChanged",
      "type": "event"
    },
    {
      "anonymous": false,
      "inputs": [
        {
          "indexed": true,
          "internalType": "address",
          "name": "delegate",
          "type": "address"
        },
        {
          "indexed": false,
          "internalType": "uint256",
          "name": "previousBalance",
          "type": "uint256"
        },
        {
          "indexed": false,
          "internalType": "uint256",
          "name": "newBalance",
          "type": "uint256"
        }
      ],
      "name": "DelegateVotesChanged",
      "type": "event"
    },
    {
      "anonymous": false,
      "inputs": [
        {
          "indexed": true,
          "internalType": "address",
          "name": "from",
          "type": "address"
        },
        {
          "indexed": true,
          "internalType": "address",
          "name": "to",
          "type": "address"
        },
        {
          "indexed": false,
          "internalType": "uint256",
          "name": "value",
          "type": "uint256"
        }
      ],
      "name": "Transfer",
      "type": "event"
    },
    {
      "inputs": [
        {
          "internalType": "address",
          "name": "owner",
          "type": "address"
        },
        {
          "internalType": "address",
          "name": "spender",
          "type": "address"
        }
      ],
      "name": "allowance",
      "outputs": [
        {
          "internalType": "uint256",
          "name": "",
          "type": "uint256"
        }
      ],
      "stateMutability": "view",
      "type": "function"
    },
    {
      "inputs": [
        {
          "internalType": "address",
          "name": "spender",
          "type": "address"
        },
        {
          "internalType": "uint256",
          "name": "amount",
          "type": "uint256"
        }
      ],
      "name": "approve",
      "outputs": [
        {
          "internalType": "bool",
          "name": "",
          "type": "bool"
        }
      ],
      "stateMutability": "nonpayable",
      "type": "function"
    },
    {
      "inputs": [],
      "name": "approved",
      "outputs": [
        {
          "internalType": "address",
          "name": "",
          "type": "address"
        }
      ],
      "stateMutability": "view",
      "type": "function"
    },
    {
      "inputs": [
        {
          "internalType": "uint256",
          "name": "_amount",
          "type": "uint256"
        }
      ],
      "name": "balanceFrom",
      "outputs": [
        {
          "internalType": "uint256",
          "name": "",
          "type": "uint256"
        }
      ],
      "stateMutability": "view",
      "type": "function"
    },
    {
      "inputs": [
        {
          "internalType": "address",
          "name": "account",
          "type": "address"
        }
      ],
      "name": "balanceOf",
      "outputs": [
        {
          "internalType": "uint256",
          "name": "",
          "type": "uint256"
        }
      ],
      "stateMutability": "view",
      "type": "function"
    },
    {
      "inputs": [
        {
          "internalType": "uint256",
          "name": "_amount",
          "type": "uint256"
        }
      ],
      "name": "balanceTo",
      "outputs": [
        {
          "internalType": "uint256",
          "name": "",
          "type": "uint256"
        }
      ],
      "stateMutability": "view",
      "type": "function"
    },
    {
      "inputs": [
        {
          "internalType": "address",
          "name": "_from",
          "type": "address"
        },
        {
          "internalType": "uint256",
          "name": "_amount",
          "type": "uint256"
        }
      ],
      "name": "burn",
      "outputs": [],
      "stateMutability": "nonpayable",
      "type": "function"
    },
    {
      "inputs": [
        {
          "internalType": "address",
          "name": "",
          "type": "address"
        },
        {
          "internalType": "uint256",
          "name": "",
          "type": "uint256"
        }
      ],
      "name": "checkpoints",
      "outputs": [
        {
          "internalType": "uint256",
          "name": "fromBlock",
          "type": "uint256"
        },
        {
          "internalType": "uint256",
          "name": "votes",
          "type": "uint256"
        }
      ],
      "stateMutability": "view",
      "type": "function"
    },
    {
      "inputs": [],
      "name": "decimals",
      "outputs": [
        {
          "internalType": "uint8",
          "name": "",
          "type": "uint8"
        }
      ],
      "stateMutability": "view",
      "type": "function"
    },
    {
      "inputs": [
        {
          "internalType": "address",
          "name": "spender",
          "type": "address"
        },
        {
          "internalType": "uint256",
          "name": "subtractedValue",
          "type": "uint256"
        }
      ],
      "name": "decreaseAllowance",
      "outputs": [
        {
          "internalType": "bool",
          "name": "",
          "type": "bool"
        }
      ],
      "stateMutability": "nonpayable",
      "type": "function"
    },
    {
      "inputs": [
        {
          "internalType": "address",
          "name": "delegatee",
          "type": "address"
        }
      ],
      "name": "delegate",
      "outputs": [],
      "stateMutability": "nonpayable",
      "type": "function"
    },
    {
      "inputs": [
        {
          "internalType": "address",
          "name": "",
          "type": "address"
        }
      ],
      "name": "delegates",
      "outputs": [
        {
          "internalType": "address",
          "name": "",
          "type": "address"
        }
      ],
      "stateMutability": "view",
      "type": "function"
    },
    {
      "inputs": [
        {
          "internalType": "address",
          "name": "account",
          "type": "address"
        }
      ],
      "name": "getCurrentVotes",
      "outputs": [
        {
          "internalType": "uint256",
          "name": "",
          "type": "uint256"
        }
      ],
      "stateMutability": "view",
      "type": "function"
    },
    {
      "inputs": [
        {
          "internalType": "address",
          "name": "account",
          "type": "address"
        },
        {
          "internalType": "uint256",
          "name": "blockNumber",
          "type": "uint256"
        }
      ],
      "name": "getPriorVotes",
      "outputs": [
        {
          "internalType": "uint256",
          "name": "",
          "type": "uint256"
        }
      ],
      "stateMutability": "view",
      "type": "function"
    },
    {
      "inputs": [
        {
          "internalType": "address",
          "name": "spender",
          "type": "address"
        },
        {
          "internalType": "uint256",
          "name": "addedValue",
          "type": "uint256"
        }
      ],
      "name": "increaseAllowance",
      "outputs": [
        {
          "internalType": "bool",
          "name": "",
          "type": "bool"
        }
      ],
      "stateMutability": "nonpayable",
      "type": "function"
    },
    {
      "inputs": [],
      "name": "index",
      "outputs": [
        {
          "internalType": "uint256",
          "name": "",
          "type": "uint256"
        }
      ],
      "stateMutability": "view",
      "type": "function"
    },
    {
      "inputs": [
        {
          "internalType": "address",
          "name": "_staking",
          "type": "address"
        }
      ],
      "name": "initialize",
      "outputs": [],
      "stateMutability": "nonpayable",
      "type": "function"
    },
    {
      "inputs": [
        {
          "internalType": "address",
          "name": "_to",
          "type": "address"
        },
        {
          "internalType": "uint256",
          "name": "_amount",
          "type": "uint256"
        }
      ],
      "name": "mint",
      "outputs": [],
      "stateMutability": "nonpayable",
      "type": "function"
    },
    {
      "inputs": [],
      "name": "name",
      "outputs": [
        {
          "internalType": "string",
          "name": "",
          "type": "string"
        }
      ],
      "stateMutability": "view",
      "type": "function"
    },
    {
      "inputs": [
        {
          "internalType": "address",
          "name": "",
          "type": "address"
        }
      ],
      "name": "numCheckpoints",
      "outputs": [
        {
          "internalType": "uint256",
          "name": "",
          "type": "uint256"
        }
      ],
      "stateMutability": "view",
      "type": "function"
    },
    {
      "inputs": [],
      "name": "ready",
      "outputs": [
        {
          "internalType": "bool",
          "name": "",
          "type": "bool"
        }
      ],
      "stateMutability": "view",
      "type": "function"
    },
    {
      "inputs": [],
      "name": "sENCTR",
      "outputs": [
        {
          "internalType": "contract IsENCTR",
          "name": "",
          "type": "address"
        }
      ],
      "stateMutability": "view",
      "type": "function"
    },
    {
      "inputs": [],
      "name": "symbol",
      "outputs": [
        {
          "internalType": "string",
          "name": "",
          "type": "string"
        }
      ],
      "stateMutability": "view",
      "type": "function"
    },
    {
      "inputs": [],
      "name": "totalSupply",
      "outputs": [
        {
          "internalType": "uint256",
          "name": "",
          "type": "uint256"
        }
      ],
      "stateMutability": "view",
      "type": "function"
    },
    {
      "inputs": [
        {
          "internalType": "address",
          "name": "recipient",
          "type": "address"
        },
        {
          "internalType": "uint256",
          "name": "amount",
          "type": "uint256"
        }
      ],
      "name": "transfer",
      "outputs": [
        {
          "internalType": "bool",
          "name": "",
          "type": "bool"
        }
      ],
      "stateMutability": "nonpayable",
      "type": "function"
    },
    {
      "inputs": [
        {
          "internalType": "address",
          "name": "sender",
          "type": "address"
        },
        {
          "internalType": "address",
          "name": "recipient",
          "type": "address"
        },
        {
          "internalType": "uint256",
          "name": "amount",
          "type": "uint256"
        }
      ],
      "name": "transferFrom",
      "outputs": [
        {
          "internalType": "bool",
          "name": "",
          "type": "bool"
        }
      ],
      "stateMutability": "nonpayable",
      "type": "function"
    }
  ],
  "transactionHash": "0xe71459f3b64e2ea2a066e39d93e53798ae1cbef62ff91a1e693a73c75807e235",
  "args": [
    "0x1075360C1AF5A47918f5DE5C6d93A34645C10EaD"
  ],
  "numDeployments": 1,
  "solcInputHash": "13f85764318f5651d016af8deb241f65",
  "bytecode": "0x60a06040523480156200001157600080fd5b5060405162001b9c38038062001b9c833981810160405260208110156200003757600080fd5b5051604080518082018252601081526f23b7bb32b93730b731b29022a721aa2960811b60208281019182528351808501909452600684526533a2a721aa2960d11b9084015281519192916012916200009391600391906200016a565b508151620000a99060049060208501906200016a565b5060f81b7fff0000000000000000000000000000000000000000000000000000000000000016608052505060058054336001600160a01b03199091161790556001600160a01b03811662000144576040805162461bcd60e51b815260206004820152601460248201527f5a65726f20616464726573733a2073454e435452000000000000000000000000604482015290519081900360640190fd5b600680546001600160a01b0319166001600160a01b039290921691909117905562000216565b828054600181600116156101000203166002900490600052602060002090601f016020900481019282620001a25760008555620001ed565b82601f10620001bd57805160ff1916838001178555620001ed565b82800160010185558215620001ed579182015b82811115620001ed578251825591602001919060010190620001d0565b50620001fb929150620001ff565b5090565b5b80821115620001fb576000815560010162000200565b60805160f81c611968620002346000398061079352506119686000f3fe608060405234801561001057600080fd5b50600436106101ae5760003560e01c806366a5236c116100ee5780639dc29fac11610097578063a9059cbb11610071578063a9059cbb14610517578063b4b5ea5714610543578063c4d66de814610569578063dd62ed3e1461058f576101ae565b80639dc29fac146104a2578063a457c2d7146104ce578063a8248768146104fa576101ae565b806370a08231116100c857806370a0823114610448578063782d6fe11461046e57806395d89b411461049a576101ae565b806366a5236c146103fd5780636defbf801461041a5780636fcfff4514610422576101ae565b806323b872dd1161015b5780633950935111610135578063395093511461035757806340c10f1914610383578063587cde1e146103b15780635c19a95c146103d7576101ae565b806323b872dd146102fb5780632986c0e514610331578063313ce56714610339576101ae565b80630cdfebfa1161018c5780630cdfebfa1461029457806318160ddd146102d957806319d40b08146102f3576101ae565b806306fdde03146101b3578063095ea7b3146102305780630a88d0d614610270575b600080fd5b6101bb6105bd565b6040805160208082528351818301528351919283929083019185019080838360005b838110156101f55781810151838201526020016101dd565b50505050905090810190601f1680156102225780820380516001836020036101000a031916815260200191505b509250505060405180910390f35b61025c6004803603604081101561024657600080fd5b506001600160a01b038135169060200135610653565b604080519115158252519081900360200190f35b61027861066a565b604080516001600160a01b039092168252519081900360200190f35b6102c0600480360360408110156102aa57600080fd5b506001600160a01b038135169060200135610679565b6040805192835260208301919091528051918290030190f35b6102e161069d565b60408051918252519081900360200190f35b6102786106a3565b61025c6004803603606081101561031157600080fd5b506001600160a01b038135811691602081013590911690604001356106b2565b6102e161071b565b610341610791565b6040805160ff9092168252519081900360200190f35b61025c6004803603604081101561036d57600080fd5b506001600160a01b0381351690602001356107b5565b6103af6004803603604081101561039957600080fd5b506001600160a01b0381351690602001356107eb565b005b610278600480360360208110156103c757600080fd5b50356001600160a01b0316610848565b6103af600480360360208110156103ed57600080fd5b50356001600160a01b0316610863565b6102e16004803603602081101561041357600080fd5b5035610870565b61025c61089b565b6102e16004803603602081101561043857600080fd5b50356001600160a01b03166108ab565b6102e16004803603602081101561045e57600080fd5b50356001600160a01b03166108bd565b6102e16004803603604081101561048457600080fd5b506001600160a01b0381351690602001356108d8565b6101bb610a9a565b6103af600480360360408110156104b857600080fd5b506001600160a01b038135169060200135610afb565b61025c600480360360408110156104e457600080fd5b506001600160a01b038135169060200135610b54565b6102e16004803603602081101561051057600080fd5b5035610ba3565b61025c6004803603604081101561052d57600080fd5b506001600160a01b038135169060200135610bc8565b6102e16004803603602081101561055957600080fd5b50356001600160a01b0316610bd5565b6103af6004803603602081101561057f57600080fd5b50356001600160a01b0316610c2d565b6102e1600480360360408110156105a557600080fd5b506001600160a01b0381358116916020013516610def565b60038054604080516020601f60026000196101006001881615020190951694909404938401819004810282018101909252828152606093909290918301828280156106495780601f1061061e57610100808354040283529160200191610649565b820191906000526020600020905b81548152906001019060200180831161062c57829003601f168201915b5050505050905090565b6000610660338484610e1a565b5060015b92915050565b6006546001600160a01b031681565b60086020908152600092835260408084209091529082529020805460019091015482565b60025490565b6007546001600160a01b031681565b60006106bf848484610f06565b610711843361070c8560405180606001604052806028815260200161187c602891396001600160a01b038a1660009081526001602090815260408083203384529091529020549190611061565b610e1a565b5060019392505050565b60065460408051632986c0e560e01b815290516000926001600160a01b031691632986c0e5916004808301926020929190829003018186803b15801561076057600080fd5b505afa158015610774573d6000803e3d6000fd5b505050506040513d602081101561078a57600080fd5b5051905090565b7f000000000000000000000000000000000000000000000000000000000000000090565b3360008181526001602090815260408083206001600160a01b0387168452909152812054909161066091859061070c90866110f8565b6007546001600160a01b0316331461083a576040805162461bcd60e51b815260206004820152600d60248201526c13db9b1e48185c1c1c9bdd9959609a1b604482015290519081900360640190fd5b6108448282611152565b5050565b600a602052600090815260409020546001600160a01b031681565b61086d3382611242565b50565b600061066461087d61071b565b610895610888610791565b859060ff16600a0a6112ce565b90611327565b600754600160a01b900460ff1681565b60096020526000908152604090205481565b6001600160a01b031660009081526020819052604090205490565b60004382106109185760405162461bcd60e51b815260040180806020018281038252602981526020018061190e6029913960400191505060405180910390fd5b6001600160a01b03831660009081526009602052604090205480610940576000915050610664565b6001600160a01b03841660009081526008602090815260408083206000198501845290915290205483106109a0576001600160a01b0384166000908152600860209081526040808320600019909401835292905220600101549050610664565b6001600160a01b03841660009081526008602090815260408083208380529091529020548310156109d5576000915050610664565b600060001982015b81811115610a6a5760028282030481036109f561178c565b506001600160a01b03871660009081526008602090815260408083208484528252918290208251808401909352805480845260019091015491830191909152871415610a4b576020015194506106649350505050565b8051871115610a5c57819350610a63565b6001820392505b50506109dd565b506001600160a01b0385166000908152600860209081526040808320938352929052206001015491505092915050565b60048054604080516020601f60026000196101006001881615020190951694909404938401819004810282018101909252828152606093909290918301828280156106495780601f1061061e57610100808354040283529160200191610649565b6007546001600160a01b03163314610b4a576040805162461bcd60e51b815260206004820152600d60248201526c13db9b1e48185c1c1c9bdd9959609a1b604482015290519081900360640190fd5b6108448282611369565b6000610660338461070c85604051806060016040528060258152602001611937602591393360009081526001602090815260408083206001600160a01b038d1684529091529020549190611061565b6000610664610bb0610791565b60ff16600a0a610895610bc161071b565b85906112ce565b6000610660338484610f06565b6001600160a01b03811660009081526009602052604081205480610bfa576000610c26565b6001600160a01b0383166000908152600860209081526040808320600019850184529091529020600101545b9392505050565b6005546001600160a01b03163314610c765760405162461bcd60e51b81526004018080602001828103825260278152602001806118556027913960400191505060405180910390fd5b600754600160a01b900460ff1615610cd5576040805162461bcd60e51b815260206004820152600560248201527f5265616479000000000000000000000000000000000000000000000000000000604482015290519081900360640190fd5b600780547fffffffffffffffffffffff00ffffffffffffffffffffffffffffffffffffffff16600160a01b17908190556001600160a01b0382811691161415610d65576040805162461bcd60e51b815260206004820152601060248201527f496e76616c696420617267756d656e7400000000000000000000000000000000604482015290519081900360640190fd5b6001600160a01b038116610dc0576040805162461bcd60e51b815260206004820152601260248201527f5a65726f206164647265737320666f756e640000000000000000000000000000604482015290519081900360640190fd5b6007805473ffffffffffffffffffffffffffffffffffffffff19166001600160a01b0392909216919091179055565b6001600160a01b03918216600090815260016020908152604080832093909416825291909152205490565b6001600160a01b038316610e5f5760405162461bcd60e51b81526004018080602001828103825260248152602001806118ea6024913960400191505060405180910390fd5b6001600160a01b038216610ea45760405162461bcd60e51b81526004018080602001828103825260228152602001806117ec6022913960400191505060405180910390fd5b6001600160a01b03808416600081815260016020908152604080832094871680845294825291829020859055815185815291517f8c5be1e5ebec7d5bd14f71427d1e84f3dd0314c0f7b2291e5b200ac8c7c3b9259281900390910190a3505050565b6001600160a01b038316610f4b5760405162461bcd60e51b81526004018080602001828103825260258152602001806118c56025913960400191505060405180910390fd5b6001600160a01b038216610f905760405162461bcd60e51b81526004018080602001828103825260238152602001806117a76023913960400191505060405180910390fd5b610f9b838383611465565b610fd88160405180606001604052806026815260200161180e602691396001600160a01b0386166000908152602081905260409020549190611061565b6001600160a01b03808516600090815260208190526040808220939093559084168152205461100790826110f8565b6001600160a01b038084166000818152602081815260409182902094909455805185815290519193928716927fddf252ad1be2c89b69c2b068fc378daa952ba7f163c4a11628f55a4df523b3ef92918290030190a3505050565b600081848411156110f05760405162461bcd60e51b81526004018080602001828103825283818151815260200191508051906020019080838360005b838110156110b557818101518382015260200161109d565b50505050905090810190601f1680156110e25780820380516001836020036101000a031916815260200191505b509250505060405180910390fd5b505050900390565b600082820183811015610c26576040805162461bcd60e51b815260206004820152601b60248201527f536166654d6174683a206164646974696f6e206f766572666c6f770000000000604482015290519081900360640190fd5b6001600160a01b0382166111ad576040805162461bcd60e51b815260206004820152601f60248201527f45524332303a206d696e7420746f20746865207a65726f206164647265737300604482015290519081900360640190fd5b6111b960008383611465565b6002546111c690826110f8565b6002556001600160a01b0382166000908152602081905260409020546111ec90826110f8565b6001600160a01b0383166000818152602081815260408083209490945583518581529351929391927fddf252ad1be2c89b69c2b068fc378daa952ba7f163c4a11628f55a4df523b3ef9281900390910190a35050565b6001600160a01b038083166000818152600a602081815260408084208054858452828620549490935287871673ffffffffffffffffffffffffffffffffffffffff198416811790915590519190951694919391928592917f3134e8a2e6d97e929a7e54011ea5485d7d196dd5f0ba4d4ef95803e8e3fc257f9190a46112c882848361149c565b50505050565b6000826112dd57506000610664565b828202828482816112ea57fe5b0414610c265760405162461bcd60e51b81526004018080602001828103825260218152602001806118346021913960400191505060405180910390fd5b6000610c2683836040518060400160405280601a81526020017f536166654d6174683a206469766973696f6e206279207a65726f0000000000008152506115c9565b6001600160a01b0382166113ae5760405162461bcd60e51b81526004018080602001828103825260218152602001806118a46021913960400191505060405180910390fd5b6113ba82600083611465565b6113f7816040518060600160405280602281526020016117ca602291396001600160a01b0385166000908152602081905260409020549190611061565b6001600160a01b03831660009081526020819052604090205560025461141d9082611645565b6002556040805182815290516000916001600160a01b038516917fddf252ad1be2c89b69c2b068fc378daa952ba7f163c4a11628f55a4df523b3ef9181900360200190a35050565b6001600160a01b038084166000908152600a60205260408082205485841683529120546114979291821691168361149c565b505050565b816001600160a01b0316836001600160a01b0316141580156114be5750600081115b15611497576001600160a01b03831615611544576001600160a01b03831660009081526009602052604081205490816114f8576000611524565b6001600160a01b0385166000908152600860209081526040808320600019860184529091529020600101545b905060006115328285611645565b905061154086848484611687565b5050505b6001600160a01b03821615611497576001600160a01b03821660009081526009602052604081205490816115795760006115a5565b6001600160a01b0384166000908152600860209081526040808320600019860184529091529020600101545b905060006115b382856110f8565b90506115c185848484611687565b505050505050565b600081836116185760405162461bcd60e51b81526020600482018181528351602484015283519092839260449091019190850190808383600083156110b557818101518382015260200161109d565b50600083858161162457fe5b04905083858161163057fe5b0681850201851461163d57fe5b949350505050565b6000610c2683836040518060400160405280601e81526020017f536166654d6174683a207375627472616374696f6e206f766572666c6f770000815250611061565b6000831180156116bd57506001600160a01b03841660009081526008602090815260408083206000198701845290915290205443145b156116f4576001600160a01b0384166000908152600860209081526040808320600019870184529091529020600101819055611743565b60408051808201825243815260208082018481526001600160a01b0388166000818152600884528581208982528452858120945185559151600194850155815260099091529190912090840190555b604080518381526020810183905281516001600160a01b038716927fdec2bacdd2f05b59de34da9b523dff8be42e5e38e818c82fdb0bae774387a724928290030190a250505050565b60405180604001604052806000815260200160008152509056fe45524332303a207472616e7366657220746f20746865207a65726f206164647265737345524332303a206275726e20616d6f756e7420657863656564732062616c616e636545524332303a20617070726f766520746f20746865207a65726f206164647265737345524332303a207472616e7366657220616d6f756e7420657863656564732062616c616e6365536166654d6174683a206d756c7469706c69636174696f6e206f766572666c6f77496e697469616c697a65723a202063616c6c6572206973206e6f7420696e697469616c697a657245524332303a207472616e7366657220616d6f756e74206578636565647320616c6c6f77616e636545524332303a206275726e2066726f6d20746865207a65726f206164647265737345524332303a207472616e736665722066726f6d20746865207a65726f206164647265737345524332303a20617070726f76652066726f6d20746865207a65726f206164647265737367454e4354523a3a6765745072696f72566f7465733a206e6f74207965742064657465726d696e656445524332303a2064656372656173656420616c6c6f77616e63652062656c6f77207a65726fa164736f6c6343000705000a",
  "devdoc": {
    "kind": "dev",
    "methods": {
      "balanceFrom(uint256)": {
        "params": {
          "_amount": "uint"
        },
        "returns": {
          "_0": "uint"
        }
      },
      "balanceTo(uint256)": {
        "params": {
          "_amount": "uint"
        },
        "returns": {
          "_0": "uint"
        }
      },
      "burn(address,uint256)": {
        "params": {
          "_amount": "uint",
          "_from": "address"
        }
      },
      "delegate(address)": {
        "params": {
          "delegatee": "The address to delegate votes to"
        }
      },
      "getCurrentVotes(address)": {
        "params": {
          "account": "The address to get votes balance"
        },
        "returns": {
          "_0": "The number of current votes for `account`"
        }
      },
      "getPriorVotes(address,uint256)": {
        "details": "Block number must be a finalized block or else this function will revert to prevent misinformation.",
        "params": {
          "account": "The address of the account to check",
          "blockNumber": "The block number to get the vote balance at"
        },
        "returns": {
          "_0": "The number of votes the account had as of the given block"
        }
      },
      "initialize(address)": {
        "params": {
          "_staking": "address"
        }
      },
      "mint(address,uint256)": {
        "params": {
          "_amount": "uint",
          "_to": "address"
        }
      }
    },
    "version": 1
  },
  "userdoc": {
    "kind": "user",
    "methods": {
      "balanceFrom(uint256)": {
        "notice": "converts gENCTR amount to ENCTR"
      },
      "balanceTo(uint256)": {
        "notice": "converts ENCTR amount to gENCTR"
      },
      "burn(address,uint256)": {
        "notice": "burn gENCTR"
      },
      "delegate(address)": {
        "notice": "Delegate votes from `msg.sender` to `delegatee`"
      },
      "getCurrentVotes(address)": {
        "notice": "Gets the current votes balance for `account`"
      },
      "getPriorVotes(address,uint256)": {
        "notice": "Determine the prior number of votes for an account as of a block number"
      },
      "index()": {
        "notice": "pull index from sENCTR token"
      },
      "initialize(address)": {
        "notice": "transfer mint rights stakingcan only be done once"
      },
      "mint(address,uint256)": {
        "notice": "mint gENCTR"
      }
    },
    "version": 1
  },
  "storageLayout": {
    "storage": [
      {
        "astId": 8876,
        "contract": "contracts/governance/gENCTR.sol:gENCTR",
        "label": "_balances",
        "offset": 0,
        "slot": "0",
        "type": "t_mapping(t_address,t_uint256)"
      },
      {
        "astId": 8882,
        "contract": "contracts/governance/gENCTR.sol:gENCTR",
        "label": "_allowances",
        "offset": 0,
        "slot": "1",
        "type": "t_mapping(t_address,t_mapping(t_address,t_uint256))"
      },
      {
        "astId": 8884,
        "contract": "contracts/governance/gENCTR.sol:gENCTR",
        "label": "_totalSupply",
        "offset": 0,
        "slot": "2",
        "type": "t_uint256"
      },
      {
        "astId": 8886,
        "contract": "contracts/governance/gENCTR.sol:gENCTR",
        "label": "_name",
        "offset": 0,
        "slot": "3",
        "type": "t_string_storage"
      },
      {
        "astId": 8888,
        "contract": "contracts/governance/gENCTR.sol:gENCTR",
        "label": "_symbol",
        "offset": 0,
        "slot": "4",
        "type": "t_string_storage"
      },
      {
        "astId": 3877,
        "contract": "contracts/governance/gENCTR.sol:gENCTR",
        "label": "initializer",
        "offset": 0,
        "slot": "5",
        "type": "t_address"
      },
      {
        "astId": 3879,
        "contract": "contracts/governance/gENCTR.sol:gENCTR",
        "label": "sENCTR",
        "offset": 0,
        "slot": "6",
        "type": "t_contract(IsENCTR)5255"
      },
      {
        "astId": 3881,
        "contract": "contracts/governance/gENCTR.sol:gENCTR",
        "label": "approved",
        "offset": 0,
        "slot": "7",
        "type": "t_address"
      },
      {
        "astId": 3883,
        "contract": "contracts/governance/gENCTR.sol:gENCTR",
        "label": "ready",
        "offset": 20,
        "slot": "7",
        "type": "t_bool"
      },
      {
        "astId": 3889,
        "contract": "contracts/governance/gENCTR.sol:gENCTR",
        "label": "checkpoints",
        "offset": 0,
        "slot": "8",
        "type": "t_mapping(t_address,t_mapping(t_uint256,t_struct(Checkpoint)3875_storage))"
      },
      {
        "astId": 3893,
        "contract": "contracts/governance/gENCTR.sol:gENCTR",
        "label": "numCheckpoints",
        "offset": 0,
        "slot": "9",
        "type": "t_mapping(t_address,t_uint256)"
      },
      {
        "astId": 3897,
        "contract": "contracts/governance/gENCTR.sol:gENCTR",
        "label": "delegates",
        "offset": 0,
        "slot": "10",
        "type": "t_mapping(t_address,t_address)"
      }
    ],
    "types": {
      "t_address": {
        "encoding": "inplace",
        "label": "address",
        "numberOfBytes": "20"
      },
      "t_bool": {
        "encoding": "inplace",
        "label": "bool",
        "numberOfBytes": "1"
      },
      "t_contract(IsENCTR)5255": {
        "encoding": "inplace",
        "label": "contract IsENCTR",
        "numberOfBytes": "20"
      },
      "t_mapping(t_address,t_address)": {
        "encoding": "mapping",
        "key": "t_address",
        "label": "mapping(address => address)",
        "numberOfBytes": "32",
        "value": "t_address"
      },
      "t_mapping(t_address,t_mapping(t_address,t_uint256))": {
        "encoding": "mapping",
        "key": "t_address",
        "label": "mapping(address => mapping(address => uint256))",
        "numberOfBytes": "32",
        "value": "t_mapping(t_address,t_uint256)"
      },
      "t_mapping(t_address,t_mapping(t_uint256,t_struct(Checkpoint)3875_storage))": {
        "encoding": "mapping",
        "key": "t_address",
        "label": "mapping(address => mapping(uint256 => struct gENCTR.Checkpoint))",
        "numberOfBytes": "32",
        "value": "t_mapping(t_uint256,t_struct(Checkpoint)3875_storage)"
      },
      "t_mapping(t_address,t_uint256)": {
        "encoding": "mapping",
        "key": "t_address",
        "label": "mapping(address => uint256)",
        "numberOfBytes": "32",
        "value": "t_uint256"
      },
      "t_mapping(t_uint256,t_struct(Checkpoint)3875_storage)": {
        "encoding": "mapping",
        "key": "t_uint256",
        "label": "mapping(uint256 => struct gENCTR.Checkpoint)",
        "numberOfBytes": "32",
        "value": "t_struct(Checkpoint)3875_storage"
      },
      "t_string_storage": {
        "encoding": "bytes",
        "label": "string",
        "numberOfBytes": "32"
      },
      "t_struct(Checkpoint)3875_storage": {
        "encoding": "inplace",
        "label": "struct gENCTR.Checkpoint",
        "members": [
          {
            "astId": 3872,
            "contract": "contracts/governance/gENCTR.sol:gENCTR",
            "label": "fromBlock",
            "offset": 0,
            "slot": "0",
            "type": "t_uint256"
          },
          {
            "astId": 3874,
            "contract": "contracts/governance/gENCTR.sol:gENCTR",
            "label": "votes",
            "offset": 0,
            "slot": "1",
            "type": "t_uint256"
          }
        ],
        "numberOfBytes": "64"
      },
      "t_uint256": {
        "encoding": "inplace",
        "label": "uint256",
        "numberOfBytes": "32"
      }
    }
  }
}