{
  "address": "0x2bdE944042489958136C75335df259a625742192",
  "abi": [
    {
      "inputs": [
        {
          "internalType": "address",
          "name": "_ENCTR",
          "type": "address"
        },
        {
          "internalType": "address",
          "name": "_pENCTR",
          "type": "address"
        },
        {
          "internalType": "address",
          "name": "_DAI",
          "type": "address"
        },
        {
          "internalType": "address",
          "name": "_treasury",
          "type": "address"
        },
        {
          "internalType": "address",
          "name": "_authority",
          "type": "address"
        }
      ],
      "stateMutability": "nonpayable",
      "type": "constructor"
    },
    {
      "anonymous": false,
      "inputs": [
        {
          "indexed": true,
          "internalType": "contract IEncountrAuthority",
          "name": "authority",
          "type": "address"
        }
      ],
      "name": "AuthorityUpdated",
      "type": "event"
    },
    {
      "inputs": [],
      "name": "DAI",
      "outputs": [
        {
          "internalType": "contract IERC20",
          "name": "",
          "type": "address"
        }
      ],
      "stateMutability": "view",
      "type": "function"
    },
    {
      "inputs": [],
      "name": "ENCTR",
      "outputs": [
        {
          "internalType": "contract IENCTR",
          "name": "",
          "type": "address"
        }
      ],
      "stateMutability": "view",
      "type": "function"
    },
    {
      "inputs": [],
      "name": "authority",
      "outputs": [
        {
          "internalType": "contract IEncountrAuthority",
          "name": "",
          "type": "address"
        }
      ],
      "stateMutability": "view",
      "type": "function"
    },
    {
      "inputs": [
        {
          "internalType": "uint256",
          "name": "_amount",
          "type": "uint256"
        }
      ],
      "name": "exercise",
      "outputs": [],
      "stateMutability": "nonpayable",
      "type": "function"
    },
    {
      "inputs": [],
      "name": "pENCTR",
      "outputs": [
        {
          "internalType": "contract IpENCTR",
          "name": "",
          "type": "address"
        }
      ],
      "stateMutability": "view",
      "type": "function"
    },
    {
      "inputs": [
        {
          "internalType": "address",
          "name": "_oldWallet",
          "type": "address"
        }
      ],
      "name": "pullWalletChange",
      "outputs": [],
      "stateMutability": "nonpayable",
      "type": "function"
    },
    {
      "inputs": [
        {
          "internalType": "address",
          "name": "_newWallet",
          "type": "address"
        }
      ],
      "name": "pushWalletChange",
      "outputs": [],
      "stateMutability": "nonpayable",
      "type": "function"
    },
    {
      "inputs": [
        {
          "internalType": "address",
          "name": "_vester",
          "type": "address"
        }
      ],
      "name": "redeemableFor",
      "outputs": [
        {
          "internalType": "uint256",
          "name": "",
          "type": "uint256"
        }
      ],
      "stateMutability": "view",
      "type": "function"
    },
    {
      "inputs": [
        {
          "internalType": "contract IEncountrAuthority",
          "name": "_newAuthority",
          "type": "address"
        }
      ],
      "name": "setAuthority",
      "outputs": [],
      "stateMutability": "nonpayable",
      "type": "function"
    },
    {
      "inputs": [
        {
          "internalType": "address",
          "name": "_vester",
          "type": "address"
        },
        {
          "internalType": "uint256",
          "name": "_rate",
          "type": "uint256"
        },
        {
          "internalType": "uint256",
          "name": "_claimed",
          "type": "uint256"
        },
        {
          "internalType": "uint256",
          "name": "_max",
          "type": "uint256"
        }
      ],
      "name": "setTerms",
      "outputs": [],
      "stateMutability": "nonpayable",
      "type": "function"
    },
    {
      "inputs": [
        {
          "internalType": "address",
          "name": "",
          "type": "address"
        }
      ],
      "name": "terms",
      "outputs": [
        {
          "internalType": "uint256",
          "name": "percent",
          "type": "uint256"
        },
        {
          "internalType": "uint256",
          "name": "claimed",
          "type": "uint256"
        },
        {
          "internalType": "uint256",
          "name": "max",
          "type": "uint256"
        }
      ],
      "stateMutability": "view",
      "type": "function"
    },
    {
      "inputs": [],
      "name": "treasury",
      "outputs": [
        {
          "internalType": "contract ITreasury",
          "name": "",
          "type": "address"
        }
      ],
      "stateMutability": "view",
      "type": "function"
    },
    {
      "inputs": [
        {
          "internalType": "address",
          "name": "",
          "type": "address"
        }
      ],
      "name": "walletChange",
      "outputs": [
        {
          "internalType": "address",
          "name": "",
          "type": "address"
        }
      ],
      "stateMutability": "view",
      "type": "function"
    }
  ],
  "transactionHash": "0x3146bf7ff828944b33c4a2e462d9f2b2e923b238c530ad6130efe545baaf0791",
  "args": [
    "0x6de159d534009c82688CfA8C57d0AD785C94533e",
    "0xDb7aBEe74252d36580d54b0ebeb5e3CcdAC1ec39",
    "0x6B175474E89094C44Da98b954EedeAC495271d0F",
    "0xC2873D87E6478598F601359FA2872829DF569152",
    "0x55Bca3935801af1b21Dee9621B212FCa3C7A40DD"
  ],
  "numDeployments": 1,
  "solcInputHash": "4449561b2ee6faae468fdf46b8c9a9bb",
  "bytecode": "0x610140604052600c6101008190526b15539055551213d49256915160a21b61012090815262000032916000919062000253565b503480156200004057600080fd5b506040516200179c3803806200179c833981810160405260a08110156200006657600080fd5b50805160208201516040808401516060850151608090950151600180546001600160a01b0319166001600160a01b03831690811790915592519495939491939290918291907f2f658b440c35314f52658ea8a740e05b284cdc84dc9ae01e891f21b8933e7cad90600090a2506001600160a01b0385166200011e576040805162461bcd60e51b815260206004820152600d60248201526c3d32b9379030b2323932b9b99760991b604482015290519081900360640190fd5b6001600160601b0319606086901b1660a0526001600160a01b0384166200017c576040805162461bcd60e51b815260206004820152600d60248201526c3d32b9379030b2323932b9b99760991b604482015290519081900360640190fd5b6001600160601b0319606085901b166080526001600160a01b038316620001da576040805162461bcd60e51b815260206004820152600d60248201526c3d32b9379030b2323932b9b99760991b604482015290519081900360640190fd5b6001600160601b0319606084901b1660c0526001600160a01b03821662000238576040805162461bcd60e51b815260206004820152600d60248201526c3d32b9379030b2323932b9b99760991b604482015290519081900360640190fd5b5060601b6001600160601b03191660e05250620002ff915050565b828054600181600116156101000203166002900490600052602060002090601f0160209004810192826200028b5760008555620002d6565b82601f10620002a657805160ff1916838001178555620002d6565b82800160010185558215620002d6579182015b82811115620002d6578251825591602001919060010190620002b9565b50620002e4929150620002e8565b5090565b5b80821115620002e45760008155600101620002e9565b60805160601c60a05160601c60c05160601c60e05160601c61142e6200036e600039806103b3528061081752806108fb52508061078952806107e852806108c85280610a50525080610374528061099e5280610df652508061055452806107be5280610cae525061142e6000f3fe608060405234801561001057600080fd5b50600436106100df5760003560e01c80638dd031ed1161008c578063c7e41d3711610066578063c7e41d37146101d7578063c8c819ac1461020f578063e0bab4c414610253578063f2cdac9b1461025b576100df565b80638dd031ed1461018c578063b07f0a41146101b2578063bf7e214f146101cf576100df565b806361d027b3116100bd57806361d027b3146101565780637a9e5e4b1461015e5780638a2f884214610184576100df565b806347c52135146100e4578063512978251461010c5780635d8fb88d14610130575b600080fd5b61010a600480360360208110156100fa57600080fd5b50356001600160a01b0316610293565b005b610114610372565b604080516001600160a01b039092168252519081900360200190f35b6101146004803603602081101561014657600080fd5b50356001600160a01b0316610396565b6101146103b1565b61010a6004803603602081101561017457600080fd5b50356001600160a01b03166103d5565b610114610552565b61010a600480360360208110156101a257600080fd5b50356001600160a01b0316610576565b61010a600480360360208110156101c857600080fd5b5035610671565b6101146109d2565b6101fd600480360360208110156101ed57600080fd5b50356001600160a01b03166109e1565b60408051918252519081900360200190f35b6102356004803603602081101561022557600080fd5b50356001600160a01b0316610a2e565b60408051938452602084019290925282820152519081900360600190f35b610114610a4e565b61010a6004803603608081101561027157600080fd5b506001600160a01b038135169060208101359060408101359060600135610a72565b6001600160a01b03818116600090815260036020526040902054163314610301576040805162461bcd60e51b815260206004820152601360248201527f77616c6c657420646964206e6f74207075736800000000000000000000000000604482015290519081900360640190fd5b6001600160a01b03166000818152600360209081526040808320805473ffffffffffffffffffffffffffffffffffffffff1916905560029182905280832033845290832081548155600182810180549183019190915582840180549290940191909155938352829055918190559055565b7f000000000000000000000000000000000000000000000000000000000000000081565b6003602052600090815260409020546001600160a01b031681565b7f000000000000000000000000000000000000000000000000000000000000000081565b600160009054906101000a90046001600160a01b03166001600160a01b0316630c340a246040518163ffffffff1660e01b815260040160206040518083038186803b15801561042357600080fd5b505afa158015610437573d6000803e3d6000fd5b505050506040513d602081101561044d57600080fd5b50516000906001600160a01b031633146104fa5760405162461bcd60e51b81526020600482019081528254600260001961010060018416150201909116046024830181905290918291604490910190849080156104eb5780601f106104c0576101008083540402835291602001916104eb565b820191906000526020600020905b8154815290600101906020018083116104ce57829003601f168201915b50509250505060405180910390fd5b506001805473ffffffffffffffffffffffffffffffffffffffff19166001600160a01b0383169081179091556040517f2f658b440c35314f52658ea8a740e05b284cdc84dc9ae01e891f21b8933e7cad90600090a250565b7f000000000000000000000000000000000000000000000000000000000000000081565b336001600160a01b03821614156105d4576040805162461bcd60e51b815260206004820152601960248201527f6d75737420737065636966792061206e65772077616c6c657400000000000000604482015290519081900360640190fd5b33600090815260026020526040902054610635576040805162461bcd60e51b815260206004820152601a60248201527f6e6f7420612070617274696369706174696e672077616c6c6574000000000000604482015290519081900360640190fd5b336000908152600360205260409020805473ffffffffffffffffffffffffffffffffffffffff19166001600160a01b0392909216919091179055565b6106796113df565b50336000908152600260208181526040928390208351606081018552815481526001820154928101929092529091015491810191909152816106ba82610ddb565b101561070d576040805162461bcd60e51b815260206004820152601160248201527f4e6f7420656e6f75676820766573746564000000000000000000000000000000604482015290519081900360640190fd5b8161072982602001518360400151610e8790919063ffffffff16565b101561077c576040805162461bcd60e51b815260206004820152601060248201527f436c61696d6564206f766572206d617800000000000000000000000000000000604482015290519081900360640190fd5b6107b16001600160a01b037f000000000000000000000000000000000000000000000000000000000000000016333085610ed0565b6107e66001600160a01b037f000000000000000000000000000000000000000000000000000000000000000016333085610ed0565b7f00000000000000000000000000000000000000000000000000000000000000006001600160a01b031663095ea7b37f0000000000000000000000000000000000000000000000000000000000000000846040518363ffffffff1660e01b815260040180836001600160a01b0316815260200182815260200192505050602060405180830381600087803b15801561087d57600080fd5b505af1158015610891573d6000803e3d6000fd5b505050506040513d60208110156108a757600080fd5b50506040805163bc157ac160e01b8152600481018490526001600160a01b037f00000000000000000000000000000000000000000000000000000000000000008116602483015260006044830181905292517f00000000000000000000000000000000000000000000000000000000000000009091169163bc157ac191606480830192602092919082900301818787803b15801561094457600080fd5b505af1158015610958573d6000803e3d6000fd5b505050506040513d602081101561096e57600080fd5b505160208301519091506109829084611058565b336000818152600260205260409020600101919091556109cd907f00000000000000000000000000000000000000000000000000000000000000006001600160a01b031690836110b2565b505050565b6001546001600160a01b031681565b6001600160a01b03811660009081526002602081815260408084208151606081018352815481526001820154938101939093529092015491810191909152610a2890610ddb565b92915050565b600260208190526000918252604090912080546001820154919092015483565b7f000000000000000000000000000000000000000000000000000000000000000081565b600160009054906101000a90046001600160a01b03166001600160a01b0316630c340a246040518163ffffffff1660e01b815260040160206040518083038186803b158015610ac057600080fd5b505afa158015610ad4573d6000803e3d6000fd5b505050506040513d6020811015610aea57600080fd5b50516000906001600160a01b03163314610b5d5760405162461bcd60e51b81526020600482019081528254600260001961010060018416150201909116046024830181905290918291604490910190849080156104eb5780601f106104c0576101008083540402835291602001916104eb565b506001600160a01b03841660009081526002602081905260409091200154811015610bcf576040805162461bcd60e51b815260206004820152601d60248201527f63616e6e6f74206c6f77657220616d6f756e7420636c61696d61626c65000000604482015290519081900360640190fd5b6001600160a01b038416600090815260026020526040902054831015610c3c576040805162461bcd60e51b815260206004820152601960248201527f63616e6e6f74206c6f7765722076657374696e67207261746500000000000000604482015290519081900360640190fd5b6001600160a01b038416600090815260026020526040902060010154821015610cac576040805162461bcd60e51b815260206004820152601460248201527f63616e6e6f74206c6f77657220636c61696d6564000000000000000000000000604482015290519081900360640190fd5b7f00000000000000000000000000000000000000000000000000000000000000006001600160a01b0316630c4b56bf856040518263ffffffff1660e01b815260040180826001600160a01b03168152602001915050602060405180830381600087803b158015610d1b57600080fd5b505af1158015610d2f573d6000803e3d6000fd5b505050506040513d6020811015610d4557600080fd5b5051610d98576040805162461bcd60e51b815260206004820181905260248201527f7468652076657374657220686173206e6f74206265656e20617070726f766564604482015290519081900360640190fd5b6040805160608101825293845260208085019384528482019283526001600160a01b03909516600090815260029586905220925183559051600183015551910155565b6000610a288260200151610e85620f4240610e7f86600001517f00000000000000000000000000000000000000000000000000000000000000006001600160a01b03166318160ddd6040518163ffffffff1660e01b815260040160206040518083038186803b158015610e4d57600080fd5b505afa158015610e61573d6000803e3d6000fd5b505050506040513d6020811015610e7757600080fd5b505190611231565b9061128a565b905b6000610ec983836040518060400160405280601e81526020017f536166654d6174683a207375627472616374696f6e206f766572666c6f7700008152506112cc565b9392505050565b604080516001600160a01b0385811660248301528481166044830152606480830185905283518084039091018152608490920183526020820180517bffffffffffffffffffffffffffffffffffffffffffffffffffffffff166323b872dd60e01b17815292518251600094606094938a169392918291908083835b60208310610f6a5780518252601f199092019160209182019101610f4b565b6001836020036101000a0380198251168184511680821785525050505050509050019150506000604051808303816000865af19150503d8060008114610fcc576040519150601f19603f3d011682016040523d82523d6000602084013e610fd1565b606091505b5091509150818015610fff575080511580610fff5750808060200190516020811015610ffc57600080fd5b50515b611050576040805162461bcd60e51b815260206004820152601460248201527f5452414e534645525f46524f4d5f4641494c4544000000000000000000000000604482015290519081900360640190fd5b505050505050565b600082820183811015610ec9576040805162461bcd60e51b815260206004820152601b60248201527f536166654d6174683a206164646974696f6e206f766572666c6f770000000000604482015290519081900360640190fd5b604080516001600160a01b038481166024830152604480830185905283518084039091018152606490920183526020820180517bffffffffffffffffffffffffffffffffffffffffffffffffffffffff1663a9059cbb60e01b178152925182516000946060949389169392918291908083835b602083106111445780518252601f199092019160209182019101611125565b6001836020036101000a0380198251168184511680821785525050505050509050019150506000604051808303816000865af19150503d80600081146111a6576040519150601f19603f3d011682016040523d82523d6000602084013e6111ab565b606091505b50915091508180156111d95750805115806111d957508080602001905160208110156111d657600080fd5b50515b61122a576040805162461bcd60e51b815260206004820152600f60248201527f5452414e534645525f4641494c45440000000000000000000000000000000000604482015290519081900360640190fd5b5050505050565b60008261124057506000610a28565b8282028284828161124d57fe5b0414610ec95760405162461bcd60e51b81526004018080602001828103825260218152602001806114016021913960400191505060405180910390fd5b6000610ec983836040518060400160405280601a81526020017f536166654d6174683a206469766973696f6e206279207a65726f000000000000815250611363565b6000818484111561135b5760405162461bcd60e51b81526004018080602001828103825283818151815260200191508051906020019080838360005b83811015611320578181015183820152602001611308565b50505050905090810190601f16801561134d5780820380516001836020036101000a031916815260200191505b509250505060405180910390fd5b505050900390565b600081836113b25760405162461bcd60e51b8152602060048201818152835160248401528351909283926044909101919085019080838360008315611320578181015183820152602001611308565b5060008385816113be57fe5b0490508385816113ca57fe5b068185020185146113d757fe5b949350505050565b6040518060600160405280600081526020016000815260200160008152509056fe536166654d6174683a206d756c7469706c69636174696f6e206f766572666c6f77a164736f6c6343000705000a",
  "devdoc": {
    "kind": "dev",
    "methods": {},
    "version": 1
  },
  "userdoc": {
    "kind": "user",
    "methods": {},
    "version": 1
  },
  "storageLayout": {
    "storage": [
      {
        "astId": 10297,
        "contract": "contracts/sales/pEncountrVesting.sol:ExercisepENCTR",
        "label": "UNAUTHORIZED",
        "offset": 0,
        "slot": "0",
        "type": "t_string_storage"
      },
      {
        "astId": 10299,
        "contract": "contracts/sales/pEncountrVesting.sol:ExercisepENCTR",
        "label": "authority",
        "offset": 0,
        "slot": "1",
        "type": "t_contract(IEncountrAuthority)4782"
      },
      {
        "astId": 9237,
        "contract": "contracts/sales/pEncountrVesting.sol:ExercisepENCTR",
        "label": "terms",
        "offset": 0,
        "slot": "2",
        "type": "t_mapping(t_address,t_struct(Term)9233_storage)"
      },
      {
        "astId": 9241,
        "contract": "contracts/sales/pEncountrVesting.sol:ExercisepENCTR",
        "label": "walletChange",
        "offset": 0,
        "slot": "3",
        "type": "t_mapping(t_address,t_address)"
      }
    ],
    "types": {
      "t_address": {
        "encoding": "inplace",
        "label": "address",
        "numberOfBytes": "20"
      },
      "t_contract(IEncountrAuthority)4782": {
        "encoding": "inplace",
        "label": "contract IEncountrAuthority",
        "numberOfBytes": "20"
      },
      "t_mapping(t_address,t_address)": {
        "encoding": "mapping",
        "key": "t_address",
        "label": "mapping(address => address)",
        "numberOfBytes": "32",
        "value": "t_address"
      },
      "t_mapping(t_address,t_struct(Term)9233_storage)": {
        "encoding": "mapping",
        "key": "t_address",
        "label": "mapping(address => struct ExercisepENCTR.Term)",
        "numberOfBytes": "32",
        "value": "t_struct(Term)9233_storage"
      },
      "t_string_storage": {
        "encoding": "bytes",
        "label": "string",
        "numberOfBytes": "32"
      },
      "t_struct(Term)9233_storage": {
        "encoding": "inplace",
        "label": "struct ExercisepENCTR.Term",
        "members": [
          {
            "astId": 9228,
            "contract": "contracts/sales/pEncountrVesting.sol:ExercisepENCTR",
            "label": "percent",
            "offset": 0,
            "slot": "0",
            "type": "t_uint256"
          },
          {
            "astId": 9230,
            "contract": "contracts/sales/pEncountrVesting.sol:ExercisepENCTR",
            "label": "claimed",
            "offset": 0,
            "slot": "1",
            "type": "t_uint256"
          },
          {
            "astId": 9232,
            "contract": "contracts/sales/pEncountrVesting.sol:ExercisepENCTR",
            "label": "max",
            "offset": 0,
            "slot": "2",
            "type": "t_uint256"
          }
        ],
        "numberOfBytes": "96"
      },
      "t_uint256": {
        "encoding": "inplace",
        "label": "uint256",
        "numberOfBytes": "32"
      }
    }
  }
}